{
  "contractName": "FarmerRole",
  "abi": [
    {
      "inputs": [],
      "stateMutability": "nonpayable",
      "type": "constructor"
    },
    {
      "anonymous": false,
      "inputs": [
        {
          "indexed": true,
          "internalType": "address",
          "name": "account",
          "type": "address"
        }
      ],
      "name": "FarmerAdded",
      "type": "event"
    },
    {
      "anonymous": false,
      "inputs": [
        {
          "indexed": true,
          "internalType": "address",
          "name": "account",
          "type": "address"
        }
      ],
      "name": "FarmerRemoved",
      "type": "event"
    },
    {
      "inputs": [
        {
          "internalType": "address",
          "name": "account",
          "type": "address"
        }
      ],
      "name": "isFarmer",
      "outputs": [
        {
          "internalType": "bool",
          "name": "",
          "type": "bool"
        }
      ],
      "stateMutability": "view",
      "type": "function",
      "constant": true
    },
    {
      "inputs": [
        {
          "internalType": "address",
          "name": "account",
          "type": "address"
        }
      ],
      "name": "addFarmer",
      "outputs": [],
      "stateMutability": "nonpayable",
      "type": "function"
    },
    {
      "inputs": [
        {
          "internalType": "address",
          "name": "account",
          "type": "address"
        }
      ],
      "name": "renounceFarmer",
      "outputs": [],
      "stateMutability": "nonpayable",
      "type": "function"
    }
  ],
  "bytecode": "0x608060405234801561001057600080fd5b506100203361002560201b60201c565b610184565b61003d81600061004060201b6102fe1790919060201c565b50565b600073ffffffffffffffffffffffffffffffffffffffff168173ffffffffffffffffffffffffffffffffffffffff16141561007a57600080fd5b61008a82826100f260201b60201c565b1561009457600080fd5b60018260000160008373ffffffffffffffffffffffffffffffffffffffff1673ffffffffffffffffffffffffffffffffffffffff16815260200190815260200160002060006101000a81548160ff0219169083151502179055505050565b60008073ffffffffffffffffffffffffffffffffffffffff168273ffffffffffffffffffffffffffffffffffffffff16141561012d57600080fd5b8260000160008373ffffffffffffffffffffffffffffffffffffffff1673ffffffffffffffffffffffffffffffffffffffff16815260200190815260200160002060009054906101000a900460ff16905092915050565b6104fe806101936000396000f3fe608060405234801561001057600080fd5b50600436106100415760003560e01c80634d04321a1461004657806380c3f96d1461008a578063b9429069146100ce575b600080fd5b6100886004803603602081101561005c57600080fd5b81019080803573ffffffffffffffffffffffffffffffffffffffff169060200190929190505050610128565b005b6100cc600480360360208110156100a057600080fd5b81019080803573ffffffffffffffffffffffffffffffffffffffff169060200190929190505050610204565b005b610110600480360360208110156100e457600080fd5b81019080803573ffffffffffffffffffffffffffffffffffffffff1690602001909291905050506102e1565b60405180821515815260200191505060405180910390f35b610131336102e1565b61013a57600080fd5b610143816102e1565b6101b5576040517f08c379a000000000000000000000000000000000000000000000000000000000815260040180806020018281038252601c8152602001807f54686973206163636f756e74206973206e6f742061204661726d65720000000081525060200191505060405180910390fd5b6101be336103aa565b8073ffffffffffffffffffffffffffffffffffffffff167fa5e0f060af304ab17dd418c7927e3da3ae7868189bf387aee09ab179ccc572f260405160405180910390a250565b61020d336102e1565b61021657600080fd5b61021f816102e1565b15610292576040517f08c379a00000000000000000000000000000000000000000000000000000000081526004018080602001828103825260208152602001807f54686973206163636f756e7420697320616c72656164792061204661726d657281525060200191505060405180910390fd5b61029b816103c1565b8073ffffffffffffffffffffffffffffffffffffffff167f2e0ded4123377a3c2bc9a26f1717655a129e2f20752924d42e730ec89c83dbd060405160405180910390a250565b60006102f78260006103d890919063ffffffff16565b9050919050565b600073ffffffffffffffffffffffffffffffffffffffff168173ffffffffffffffffffffffffffffffffffffffff16141561033857600080fd5b61034282826103d8565b1561034c57600080fd5b60018260000160008373ffffffffffffffffffffffffffffffffffffffff1673ffffffffffffffffffffffffffffffffffffffff16815260200190815260200160002060006101000a81548160ff0219169083151502179055505050565b6103be81600061046a90919063ffffffff16565b50565b6103d58160006102fe90919063ffffffff16565b50565b60008073ffffffffffffffffffffffffffffffffffffffff168273ffffffffffffffffffffffffffffffffffffffff16141561041357600080fd5b8260000160008373ffffffffffffffffffffffffffffffffffffffff1673ffffffffffffffffffffffffffffffffffffffff16815260200190815260200160002060009054906101000a900460ff16905092915050565b60008260000160008373ffffffffffffffffffffffffffffffffffffffff1673ffffffffffffffffffffffffffffffffffffffff16815260200190815260200160002060006101000a81548160ff021916908315150217905550505056fea2646970667358221220f6835b753d58b2386e81c288f6b71cf4770369178bc2abaa5a4a012a3c79919d64736f6c63430007010033",
  "immutableReferences": {},
  "source": "pragma solidity 0.7.1;\n\n// Import the library 'Roles'\nimport \"./Roles.sol\";\n\n// Define a contract 'FarmerRole' to manage this role - add, remove, check\ncontract FarmerRole {\n  using Roles for Roles.Role;\n\n  // Define 2 events, one for Adding, and other for Removing\n  event FarmerAdded(address indexed account);\n  event FarmerRemoved(address indexed account);\n\n  // Define a struct 'farmers' by inheriting from 'Roles' library, struct Role\n  Roles.Role private farmers;\n\n  // In the constructor make the address that deploys this contract the 1st farmer\n  constructor() {\n    _addFarmer(msg.sender);\n  }\n\n  // Define a modifier that checks to see if msg.sender has the appropriate role\n  modifier onlyFarmer() {\n    require(isFarmer(msg.sender));\n    _;\n  }\n\n  // Define a function 'isFarmer' to check this role\n  function isFarmer(address account) public view returns (bool) {\n    return farmers.has(account);\n  }\n\n  // Define a function 'addFarmer' that adds this role\n  function addFarmer(address account) public onlyFarmer {\n    require(!isFarmer(account), \"This account is already a Farmer\");\n    _addFarmer(account);\n    emit FarmerAdded(account);\n  }\n\n  // Define a function 'renounceFarmer' to renounce this role\n  function renounceFarmer(address account) public onlyFarmer {\n    require(isFarmer(account), \"This account is not a Farmer\");\n    _removeFarmer(msg.sender);\n    emit FarmerRemoved(account);\n  }\n\n  // Define an internal function '_addFarmer' to add this role, called by 'addFarmer'\n  function _addFarmer(address account) internal {\n    farmers.add(account);\n  }\n\n  // Define an internal function '_removeFarmer' to remove this role, called by 'removeFarmer'\n  function _removeFarmer(address account) internal {\n    farmers.remove(account);\n  }\n}",
  "sourcePath": "/Users/tom/udacity/project3/nd1309-Project-6b-Example-Template/project-6/contracts/coffeeaccesscontrol/FarmerRole.sol",
  "compiler": {
    "name": "solc",
    "version": "0.7.1+commit.f4a555be.Linux.g++"
  },
  "schemaVersion": "3.3.3",
  "updatedAt": "2021-05-16T16:43:54.773Z",
  "networkType": "ethereum",
  "devdoc": {
    "kind": "dev",
    "methods": {},
    "version": 1
  },
  "userdoc": {
    "kind": "user",
    "methods": {},
    "version": 1
  }
}