{
  "contractName": "SupplyChain",
  "abi": [
    {
      "inputs": [],
      "stateMutability": "payable",
      "type": "constructor"
    },
    {
      "anonymous": false,
      "inputs": [
        {
          "indexed": false,
          "internalType": "address",
          "name": "account",
          "type": "address"
        }
      ],
      "name": "ConsumerAdded",
      "type": "event"
    },
    {
      "anonymous": false,
      "inputs": [
        {
          "indexed": false,
          "internalType": "address",
          "name": "account",
          "type": "address"
        }
      ],
      "name": "ConsumerRemoved",
      "type": "event"
    },
    {
      "anonymous": false,
      "inputs": [
        {
          "indexed": false,
          "internalType": "address",
          "name": "distributorAddress",
          "type": "address"
        }
      ],
      "name": "DistributorAdded",
      "type": "event"
    },
    {
      "anonymous": false,
      "inputs": [
        {
          "indexed": false,
          "internalType": "address",
          "name": "distributorAddress",
          "type": "address"
        }
      ],
      "name": "DistributorRemoved",
      "type": "event"
    },
    {
      "anonymous": false,
      "inputs": [
        {
          "indexed": true,
          "internalType": "address",
          "name": "account",
          "type": "address"
        }
      ],
      "name": "FarmerAdded",
      "type": "event"
    },
    {
      "anonymous": false,
      "inputs": [
        {
          "indexed": true,
          "internalType": "address",
          "name": "account",
          "type": "address"
        }
      ],
      "name": "FarmerRemoved",
      "type": "event"
    },
    {
      "anonymous": false,
      "inputs": [
        {
          "indexed": false,
          "internalType": "uint256",
          "name": "upc",
          "type": "uint256"
        }
      ],
      "name": "ForSale",
      "type": "event"
    },
    {
      "anonymous": false,
      "inputs": [
        {
          "indexed": false,
          "internalType": "uint256",
          "name": "upc",
          "type": "uint256"
        }
      ],
      "name": "Harvested",
      "type": "event"
    },
    {
      "anonymous": false,
      "inputs": [
        {
          "indexed": false,
          "internalType": "uint256",
          "name": "upc",
          "type": "uint256"
        }
      ],
      "name": "Packed",
      "type": "event"
    },
    {
      "anonymous": false,
      "inputs": [
        {
          "indexed": false,
          "internalType": "uint256",
          "name": "upc",
          "type": "uint256"
        }
      ],
      "name": "Processed",
      "type": "event"
    },
    {
      "anonymous": false,
      "inputs": [
        {
          "indexed": false,
          "internalType": "uint256",
          "name": "upc",
          "type": "uint256"
        }
      ],
      "name": "Purchased",
      "type": "event"
    },
    {
      "anonymous": false,
      "inputs": [
        {
          "indexed": false,
          "internalType": "uint256",
          "name": "upc",
          "type": "uint256"
        }
      ],
      "name": "Received",
      "type": "event"
    },
    {
      "anonymous": false,
      "inputs": [
        {
          "indexed": false,
          "internalType": "address",
          "name": "retailerAddress",
          "type": "address"
        }
      ],
      "name": "RetailerAdded",
      "type": "event"
    },
    {
      "anonymous": false,
      "inputs": [
        {
          "indexed": false,
          "internalType": "address",
          "name": "retailerAddress",
          "type": "address"
        }
      ],
      "name": "RetailerRemoved",
      "type": "event"
    },
    {
      "anonymous": false,
      "inputs": [
        {
          "indexed": false,
          "internalType": "uint256",
          "name": "upc",
          "type": "uint256"
        }
      ],
      "name": "Shipped",
      "type": "event"
    },
    {
      "anonymous": false,
      "inputs": [
        {
          "indexed": false,
          "internalType": "uint256",
          "name": "upc",
          "type": "uint256"
        }
      ],
      "name": "Sold",
      "type": "event"
    },
    {
      "anonymous": false,
      "inputs": [
        {
          "indexed": true,
          "internalType": "address",
          "name": "oldOwner",
          "type": "address"
        },
        {
          "indexed": true,
          "internalType": "address",
          "name": "newOwner",
          "type": "address"
        }
      ],
      "name": "TransferOwnership",
      "type": "event"
    },
    {
      "inputs": [
        {
          "internalType": "address",
          "name": "account",
          "type": "address"
        }
      ],
      "name": "addConsumer",
      "outputs": [],
      "stateMutability": "nonpayable",
      "type": "function"
    },
    {
      "inputs": [
        {
          "internalType": "address",
          "name": "account",
          "type": "address"
        }
      ],
      "name": "addDistributor",
      "outputs": [],
      "stateMutability": "nonpayable",
      "type": "function"
    },
    {
      "inputs": [
        {
          "internalType": "address",
          "name": "account",
          "type": "address"
        }
      ],
      "name": "addFarmer",
      "outputs": [],
      "stateMutability": "nonpayable",
      "type": "function"
    },
    {
      "inputs": [
        {
          "internalType": "address",
          "name": "account",
          "type": "address"
        }
      ],
      "name": "addRetailer",
      "outputs": [],
      "stateMutability": "nonpayable",
      "type": "function"
    },
    {
      "inputs": [],
      "name": "currentContractState",
      "outputs": [
        {
          "internalType": "enum SupplyChain.ContractState",
          "name": "",
          "type": "uint8"
        }
      ],
      "stateMutability": "view",
      "type": "function"
    },
    {
      "inputs": [
        {
          "internalType": "address",
          "name": "account",
          "type": "address"
        }
      ],
      "name": "isConsumer",
      "outputs": [
        {
          "internalType": "bool",
          "name": "",
          "type": "bool"
        }
      ],
      "stateMutability": "view",
      "type": "function"
    },
    {
      "inputs": [
        {
          "internalType": "address",
          "name": "account",
          "type": "address"
        }
      ],
      "name": "isDistributor",
      "outputs": [
        {
          "internalType": "bool",
          "name": "",
          "type": "bool"
        }
      ],
      "stateMutability": "view",
      "type": "function"
    },
    {
      "inputs": [
        {
          "internalType": "address",
          "name": "account",
          "type": "address"
        }
      ],
      "name": "isFarmer",
      "outputs": [
        {
          "internalType": "bool",
          "name": "",
          "type": "bool"
        }
      ],
      "stateMutability": "view",
      "type": "function"
    },
    {
      "inputs": [],
      "name": "isOwner",
      "outputs": [
        {
          "internalType": "bool",
          "name": "",
          "type": "bool"
        }
      ],
      "stateMutability": "view",
      "type": "function"
    },
    {
      "inputs": [
        {
          "internalType": "address",
          "name": "account",
          "type": "address"
        }
      ],
      "name": "isRetailer",
      "outputs": [
        {
          "internalType": "bool",
          "name": "",
          "type": "bool"
        }
      ],
      "stateMutability": "view",
      "type": "function"
    },
    {
      "inputs": [],
      "name": "owner",
      "outputs": [
        {
          "internalType": "address",
          "name": "",
          "type": "address"
        }
      ],
      "stateMutability": "view",
      "type": "function"
    },
    {
      "inputs": [
        {
          "internalType": "address",
          "name": "account",
          "type": "address"
        }
      ],
      "name": "renounceConsumer",
      "outputs": [],
      "stateMutability": "nonpayable",
      "type": "function"
    },
    {
      "inputs": [
        {
          "internalType": "address",
          "name": "account",
          "type": "address"
        }
      ],
      "name": "renounceDistributor",
      "outputs": [],
      "stateMutability": "nonpayable",
      "type": "function"
    },
    {
      "inputs": [],
      "name": "renounceFarmer",
      "outputs": [],
      "stateMutability": "nonpayable",
      "type": "function"
    },
    {
      "inputs": [],
      "name": "renounceOwnership",
      "outputs": [],
      "stateMutability": "nonpayable",
      "type": "function"
    },
    {
      "inputs": [
        {
          "internalType": "address",
          "name": "account",
          "type": "address"
        }
      ],
      "name": "renounceRetailer",
      "outputs": [],
      "stateMutability": "nonpayable",
      "type": "function"
    },
    {
      "inputs": [
        {
          "internalType": "address",
          "name": "newOwner",
          "type": "address"
        }
      ],
      "name": "transferOwnership",
      "outputs": [],
      "stateMutability": "nonpayable",
      "type": "function"
    },
    {
      "inputs": [],
      "name": "kill",
      "outputs": [],
      "stateMutability": "nonpayable",
      "type": "function"
    },
    {
      "inputs": [
        {
          "internalType": "uint256",
          "name": "_upc",
          "type": "uint256"
        },
        {
          "internalType": "address",
          "name": "_originFarmerID",
          "type": "address"
        },
        {
          "internalType": "string",
          "name": "_originFarmName",
          "type": "string"
        },
        {
          "internalType": "string",
          "name": "_originFarmInformation",
          "type": "string"
        },
        {
          "internalType": "string",
          "name": "_originFarmLatitude",
          "type": "string"
        },
        {
          "internalType": "string",
          "name": "_originFarmLongitude",
          "type": "string"
        },
        {
          "internalType": "string",
          "name": "_productNotes",
          "type": "string"
        }
      ],
      "name": "harvestItem",
      "outputs": [],
      "stateMutability": "nonpayable",
      "type": "function"
    },
    {
      "inputs": [],
      "name": "getContractState",
      "outputs": [
        {
          "internalType": "enum SupplyChain.ContractState",
          "name": "",
          "type": "uint8"
        }
      ],
      "stateMutability": "view",
      "type": "function"
    },
    {
      "inputs": [],
      "name": "pauseContract",
      "outputs": [
        {
          "internalType": "bool",
          "name": "",
          "type": "bool"
        }
      ],
      "stateMutability": "nonpayable",
      "type": "function"
    },
    {
      "inputs": [],
      "name": "restartContract",
      "outputs": [
        {
          "internalType": "bool",
          "name": "",
          "type": "bool"
        }
      ],
      "stateMutability": "nonpayable",
      "type": "function"
    },
    {
      "inputs": [
        {
          "internalType": "uint256",
          "name": "_upc",
          "type": "uint256"
        }
      ],
      "name": "processItem",
      "outputs": [],
      "stateMutability": "nonpayable",
      "type": "function"
    },
    {
      "inputs": [
        {
          "internalType": "uint256",
          "name": "_upc",
          "type": "uint256"
        }
      ],
      "name": "packItem",
      "outputs": [],
      "stateMutability": "nonpayable",
      "type": "function"
    },
    {
      "inputs": [
        {
          "internalType": "uint256",
          "name": "_upc",
          "type": "uint256"
        },
        {
          "internalType": "uint256",
          "name": "_price",
          "type": "uint256"
        }
      ],
      "name": "sellItem",
      "outputs": [],
      "stateMutability": "nonpayable",
      "type": "function"
    },
    {
      "inputs": [
        {
          "internalType": "uint256",
          "name": "_upc",
          "type": "uint256"
        }
      ],
      "name": "buyItem",
      "outputs": [],
      "stateMutability": "payable",
      "type": "function"
    },
    {
      "inputs": [
        {
          "internalType": "uint256",
          "name": "_upc",
          "type": "uint256"
        }
      ],
      "name": "shipItem",
      "outputs": [],
      "stateMutability": "nonpayable",
      "type": "function"
    },
    {
      "inputs": [
        {
          "internalType": "uint256",
          "name": "_upc",
          "type": "uint256"
        }
      ],
      "name": "receiveItem",
      "outputs": [],
      "stateMutability": "nonpayable",
      "type": "function"
    },
    {
      "inputs": [
        {
          "internalType": "uint256",
          "name": "_upc",
          "type": "uint256"
        }
      ],
      "name": "purchaseItem",
      "outputs": [],
      "stateMutability": "nonpayable",
      "type": "function"
    },
    {
      "inputs": [
        {
          "internalType": "uint256",
          "name": "_upc",
          "type": "uint256"
        }
      ],
      "name": "fetchItemBufferOne",
      "outputs": [
        {
          "internalType": "uint256",
          "name": "itemSKU",
          "type": "uint256"
        },
        {
          "internalType": "uint256",
          "name": "itemUPC",
          "type": "uint256"
        },
        {
          "internalType": "address",
          "name": "ownerID",
          "type": "address"
        },
        {
          "internalType": "address",
          "name": "originFarmerID",
          "type": "address"
        },
        {
          "internalType": "string",
          "name": "originFarmName",
          "type": "string"
        },
        {
          "internalType": "string",
          "name": "originFarmInformation",
          "type": "string"
        },
        {
          "internalType": "string",
          "name": "originFarmLatitude",
          "type": "string"
        },
        {
          "internalType": "string",
          "name": "originFarmLongitude",
          "type": "string"
        }
      ],
      "stateMutability": "view",
      "type": "function"
    },
    {
      "inputs": [
        {
          "internalType": "uint256",
          "name": "_upc",
          "type": "uint256"
        }
      ],
      "name": "fetchItemBufferTwo",
      "outputs": [
        {
          "internalType": "uint256",
          "name": "itemSKU",
          "type": "uint256"
        },
        {
          "internalType": "uint256",
          "name": "itemUPC",
          "type": "uint256"
        },
        {
          "internalType": "uint256",
          "name": "productID",
          "type": "uint256"
        },
        {
          "internalType": "string",
          "name": "productNotes",
          "type": "string"
        },
        {
          "internalType": "uint256",
          "name": "productPrice",
          "type": "uint256"
        },
        {
          "internalType": "uint256",
          "name": "itemState",
          "type": "uint256"
        },
        {
          "internalType": "address",
          "name": "distributorID",
          "type": "address"
        },
        {
          "internalType": "address",
          "name": "retailerID",
          "type": "address"
        },
        {
          "internalType": "address",
          "name": "consumerID",
          "type": "address"
        }
      ],
      "stateMutability": "view",
      "type": "function"
    }
  ],
  "bytecode": "0x608060405260016000800160003373ffffffffffffffffffffffffffffffffffffffff1673ffffffffffffffffffffffffffffffffffffffff16815260200190815260200160002060006101000a81548160ff02191690831515021790555060018060000160003373ffffffffffffffffffffffffffffffffffffffff1673ffffffffffffffffffffffffffffffffffffffff16815260200190815260200160002060006101000a81548160ff021916908315150217905550620000c9336200021d60201b60201c565b6001600360000160003373ffffffffffffffffffffffffffffffffffffffff1673ffffffffffffffffffffffffffffffffffffffff16815260200190815260200160002060006101000a81548160ff02191690831515021790555033600460006101000a81548173ffffffffffffffffffffffffffffffffffffffff021916908373ffffffffffffffffffffffffffffffffffffffff160217905550600460009054906101000a900473ffffffffffffffffffffffffffffffffffffffff1673ffffffffffffffffffffffffffffffffffffffff16600073ffffffffffffffffffffffffffffffffffffffff167f5c486528ec3e3f0ea91181cff8116f02bfa350e03b8b6f12e00765adbb5af85c60405160405180910390a3600160068190555060016005819055506000600960006101000a81548160ff021916908360018111156200021257fe5b0217905550620003c7565b620002388160026200027e60201b62003aed1790919060201c565b8073ffffffffffffffffffffffffffffffffffffffff167f2e0ded4123377a3c2bc9a26f1717655a129e2f20752924d42e730ec89c83dbd060405160405180910390a250565b600073ffffffffffffffffffffffffffffffffffffffff168173ffffffffffffffffffffffffffffffffffffffff161415620002b957600080fd5b620002cb82826200033460201b60201c565b15620002d657600080fd5b60018260000160008373ffffffffffffffffffffffffffffffffffffffff1673ffffffffffffffffffffffffffffffffffffffff16815260200190815260200160002060006101000a81548160ff0219169083151502179055505050565b60008073ffffffffffffffffffffffffffffffffffffffff168273ffffffffffffffffffffffffffffffffffffffff1614156200037057600080fd5b8260000160008373ffffffffffffffffffffffffffffffffffffffff1673ffffffffffffffffffffffffffffffffffffffff16815260200190815260200160002060009054906101000a900460ff16905092915050565b6140f580620003d76000396000f3fe6080604052600436106101d85760003560e01c8063834ff73911610102578063bdd8a6a811610095578063f2fde38b11610064578063f2fde38b14610eb8578063f30fc48014610f09578063f487d48d14610f44578063f61c899a14610f95576101d8565b8063bdd8a6a814610acb578063d38ea5bf14610e19578063e7fb74c714610e54578063f2daf6be14610e82576101d8565b80638f32d59b116100d15780638f32d59b146109ab578063a26be999146109d8578063b942906914610a13578063bbb67db914610a7a576101d8565b8063834ff7391461084b5780638da5cb5b146108b25780638ec4f505146108f35780638f0c86fa14610944576101d8565b80635da09b881161017a57806377c459131161014957806377c459131461056d5780637f4e4849146107ad57806380c3f96d146107e357806380fc0ce414610834576101d8565b80635da09b881461037057806366225ff9146103d7578063715018a6146105055780637250e2241461051c576101d8565b806330a52d5b116101b657806330a52d5b146102c457806341c0e1b5146102f1578063439766ce1461030857806349dae76614610335576101d8565b80630ca71432146101dd578063112940f91461022e5780632d9235611461027f575b600080fd5b3480156101e957600080fd5b5061022c6004803603602081101561020057600080fd5b81019080803573ffffffffffffffffffffffffffffffffffffffff169060200190929190505050610fd0565b005b34801561023a57600080fd5b5061027d6004803603602081101561025157600080fd5b81019080803573ffffffffffffffffffffffffffffffffffffffff1690602001909291905050506110a4565b005b34801561028b57600080fd5b506102c2600480360360408110156102a257600080fd5b810190808035906020019092919080359060200190929190505050611178565b005b3480156102d057600080fd5b506102d96113e1565b60405180821515815260200191505060405180910390f35b3480156102fd57600080fd5b50610306611556565b005b34801561031457600080fd5b5061031d61158c565b60405180821515815260200191505060405180910390f35b34801561034157600080fd5b5061036e6004803603602081101561035857600080fd5b81019080803590602001909291905050506116ff565b005b34801561037c57600080fd5b506103bf6004803603602081101561039357600080fd5b81019080803573ffffffffffffffffffffffffffffffffffffffff169060200190929190505050611951565b60405180821515815260200191505060405180910390f35b3480156103e357600080fd5b50610410600480360360208110156103fa57600080fd5b8101908080359060200190929190505050611965565b604051808a8152602001898152602001888152602001806020018781526020018681526020018573ffffffffffffffffffffffffffffffffffffffff1681526020018473ffffffffffffffffffffffffffffffffffffffff1681526020018373ffffffffffffffffffffffffffffffffffffffff168152602001828103825288818151815260200191508051906020019080838360005b838110156104c25780820151818401526020810190506104a7565b50505050905090810190601f1680156104ef5780820380516001836020036101000a031916815260200191505b509a505050505050505050505060405180910390f35b34801561051157600080fd5b5061051a611fa6565b005b34801561052857600080fd5b5061056b6004803603602081101561053f57600080fd5b81019080803573ffffffffffffffffffffffffffffffffffffffff169060200190929190505050612078565b005b34801561057957600080fd5b506105a66004803603602081101561059057600080fd5b810190808035906020019092919050505061212f565b604051808981526020018881526020018773ffffffffffffffffffffffffffffffffffffffff1681526020018673ffffffffffffffffffffffffffffffffffffffff16815260200180602001806020018060200180602001858103855289818151815260200191508051906020019080838360005b8381101561063657808201518184015260208101905061061b565b50505050905090810190601f1680156106635780820380516001836020036101000a031916815260200191505b50858103845288818151815260200191508051906020019080838360005b8381101561069c578082015181840152602081019050610681565b50505050905090810190601f1680156106c95780820380516001836020036101000a031916815260200191505b50858103835287818151815260200191508051906020019080838360005b838110156107025780820151818401526020810190506106e7565b50505050905090810190601f16801561072f5780820380516001836020036101000a031916815260200191505b50858103825286818151815260200191508051906020019080838360005b8381101561076857808201518184015260208101905061074d565b50505050905090810190601f1680156107955780820380516001836020036101000a031916815260200191505b509c5050505050505050505050505060405180910390f35b3480156107b957600080fd5b506107c2612753565b604051808260018111156107d257fe5b815260200191505060405180910390f35b3480156107ef57600080fd5b506108326004803603602081101561080657600080fd5b81019080803573ffffffffffffffffffffffffffffffffffffffff16906020019092919050505061276a565b005b34801561084057600080fd5b50610849612788565b005b34801561085757600080fd5b5061089a6004803603602081101561086e57600080fd5b81019080803573ffffffffffffffffffffffffffffffffffffffff169060200190929190505050612793565b60405180821515815260200191505060405180910390f35b3480156108be57600080fd5b506108c7612868565b604051808273ffffffffffffffffffffffffffffffffffffffff16815260200191505060405180910390f35b3480156108ff57600080fd5b506109426004803603602081101561091657600080fd5b81019080803573ffffffffffffffffffffffffffffffffffffffff169060200190929190505050612892565b005b34801561095057600080fd5b506109936004803603602081101561096757600080fd5b81019080803573ffffffffffffffffffffffffffffffffffffffff169060200190929190505050612966565b60405180821515815260200191505060405180910390f35b3480156109b757600080fd5b506109c0612a3c565b60405180821515815260200191505060405180910390f35b3480156109e457600080fd5b50610a11600480360360208110156109fb57600080fd5b8101908080359060200190929190505050612a94565b005b348015610a1f57600080fd5b50610a6260048036036020811015610a3657600080fd5b81019080803573ffffffffffffffffffffffffffffffffffffffff169060200190929190505050612ccb565b60405180821515815260200191505060405180910390f35b348015610a8657600080fd5b50610ac960048036036020811015610a9d57600080fd5b81019080803573ffffffffffffffffffffffffffffffffffffffff169060200190929190505050612ce8565b005b348015610ad757600080fd5b50610e17600480360360e0811015610aee57600080fd5b8101908080359060200190929190803573ffffffffffffffffffffffffffffffffffffffff16906020019092919080359060200190640100000000811115610b3557600080fd5b820183602082011115610b4757600080fd5b80359060200191846001830284011164010000000083111715610b6957600080fd5b91908080601f016020809104026020016040519081016040528093929190818152602001838380828437600081840152601f19601f82011690508083019250505050505050919291929080359060200190640100000000811115610bcc57600080fd5b820183602082011115610bde57600080fd5b80359060200191846001830284011164010000000083111715610c0057600080fd5b91908080601f016020809104026020016040519081016040528093929190818152602001838380828437600081840152601f19601f82011690508083019250505050505050919291929080359060200190640100000000811115610c6357600080fd5b820183602082011115610c7557600080fd5b80359060200191846001830284011164010000000083111715610c9757600080fd5b91908080601f016020809104026020016040519081016040528093929190818152602001838380828437600081840152601f19601f82011690508083019250505050505050919291929080359060200190640100000000811115610cfa57600080fd5b820183602082011115610d0c57600080fd5b80359060200191846001830284011164010000000083111715610d2e57600080fd5b91908080601f016020809104026020016040519081016040528093929190818152602001838380828437600081840152601f19601f82011690508083019250505050505050919291929080359060200190640100000000811115610d9157600080fd5b820183602082011115610da357600080fd5b80359060200191846001830284011164010000000083111715610dc557600080fd5b91908080601f016020809104026020016040519081016040528093929190818152602001838380828437600081840152601f19601f820116905080830192505050505050509192919290505050612d9f565b005b348015610e2557600080fd5b50610e5260048036036020811015610e3c57600080fd5b810190808035906020019092919050505061300e565b005b610e8060048036036020811015610e6a57600080fd5b8101908080359060200190929190505050613245565b005b348015610e8e57600080fd5b50610e9761359b565b60405180826001811115610ea757fe5b815260200191505060405180910390f35b348015610ec457600080fd5b50610f0760048036036020811015610edb57600080fd5b81019080803573ffffffffffffffffffffffffffffffffffffffff1690602001909291905050506135ae565b005b348015610f1557600080fd5b50610f4260048036036020811015610f2c57600080fd5b81019080803590602001909291905050506135cb565b005b348015610f5057600080fd5b50610f9360048036036020811015610f6757600080fd5b81019080803573ffffffffffffffffffffffffffffffffffffffff169060200190929190505050613885565b005b348015610fa157600080fd5b50610fce60048036036020811015610fb857600080fd5b8101908080359060200190929190505050613959565b005b610fd933611951565b61104b576040517f08c379a00000000000000000000000000000000000000000000000000000000081526004018080602001828103825260188152602001807f43616c6c6572206973206e6f7420612052657461696c6572000000000000000081525060200191505060405180910390fd5b61105481613b99565b7fdb7176e79cffef81cb01767dd0447a0b24bb72ca9778d4b245581086b2a7e6db81604051808273ffffffffffffffffffffffffffffffffffffffff16815260200191505060405180910390a150565b6110ad33612793565b61111f576040517f08c379a00000000000000000000000000000000000000000000000000000000081526004018080602001828103825260188152602001807f43616c6c6572206973206e6f74206120436f6e73756d6572000000000000000081525060200191505060405180910390fd5b61112881613ba7565b7f28b26e7a3d20aedbc5f8f2ebf7da671c0491723a2b78f47a097b0e46dee0714281604051808273ffffffffffffffffffffffffffffffffffffffff16815260200191505060405180910390a150565b6000600181111561118557fe5b600960009054906101000a900460ff1660018111156111a057fe5b146111f6576040517f08c379a00000000000000000000000000000000000000000000000000000000081526004018080602001828103825260318152602001806140396031913960400191505060405180910390fd5b816002600781111561120457fe5b60076000838152602001908152602001600020600b0160009054906101000a900460ff16600781111561123357fe5b5050816000811161128f576040517f08c379a00000000000000000000000000000000000000000000000000000000081526004018080602001828103825260218152602001806140186021913960400191505060405180910390fd5b61129833612ccb565b6112a157600080fd5b833373ffffffffffffffffffffffffffffffffffffffff166007600083815260200190815260200160002060030160009054906101000a900473ffffffffffffffffffffffffffffffffffffffff1673ffffffffffffffffffffffffffffffffffffffff161461135c576040517f08c379a000000000000000000000000000000000000000000000000000000000815260040180806020018281038252603381526020018061408d6033913960400191505060405180910390fd5b60006007600087815260200190815260200160002090508481600a0181905550600381600b0160006101000a81548160ff0219169083600781111561139d57fe5b02179055507fa96ae0fc3224ebd79eebfe54bd130cc9cb94416cddd1f2386115e00b72532468866040518082815260200191505060405180910390a1505050505050565b60006113eb612a3c565b6113f457600080fd5b6000600181111561140157fe5b600960009054906101000a900460ff16600181111561141c57fe5b1415611490576040517f08c379a00000000000000000000000000000000000000000000000000000000081526004018080602001828103825260168152602001807f436f6e747261637420697320616c7265616479206f6e0000000000000000000081525060200191505060405180910390fd5b6000600960006101000a81548160ff021916908360018111156114af57fe5b0217905550600060018111156114c157fe5b600960009054906101000a900460ff1660018111156114dc57fe5b1461154f576040517f08c379a000000000000000000000000000000000000000000000000000000000815260040180806020018281038252601e8152602001807f4661696c656420746f20726573746172742074686520636f6e7472616374000081525060200191505060405180910390fd5b6001905090565b61155e612a3c565b61156757600080fd5b6000611571612868565b90508073ffffffffffffffffffffffffffffffffffffffff16ff5b6000611596612a3c565b61159f57600080fd5b6001808111156115ab57fe5b600960009054906101000a900460ff1660018111156115c657fe5b141561163a576040517f08c379a000000000000000000000000000000000000000000000000000000000815260040180806020018281038252601a8152602001807f436f6e747261637420697320616c72656164792070617573656400000000000081525060200191505060405180910390fd5b6001600960006101000a81548160ff0219169083600181111561165957fe5b021790555060018081111561166a57fe5b600960009054906101000a900460ff16600181111561168557fe5b146116f8576040517f08c379a000000000000000000000000000000000000000000000000000000000815260040180806020018281038252601c8152602001807f4661696c656420746f2070617573652074686520636f6e74726163740000000081525060200191505060405180910390fd5b6001905090565b6000600181111561170c57fe5b600960009054906101000a900460ff16600181111561172757fe5b1461177d576040517f08c379a00000000000000000000000000000000000000000000000000000000081526004018080602001828103825260318152602001806140396031913960400191505060405180910390fd5b806000600781111561178b57fe5b60076000838152602001908152602001600020600b0160009054906101000a900460ff1660078111156117ba57fe5b50506117c533612ccb565b6117ce57600080fd5b813373ffffffffffffffffffffffffffffffffffffffff166007600083815260200190815260200160002060030160009054906101000a900473ffffffffffffffffffffffffffffffffffffffff1673ffffffffffffffffffffffffffffffffffffffff1614611889576040517f08c379a000000000000000000000000000000000000000000000000000000000815260040180806020018281038252603381526020018061408d6033913960400191505060405180910390fd5b6000600760008581526020019081526020016000209050600181600b0160006101000a81548160ff021916908360078111156118c157fe5b02179055506040518060400160405280602081526020017f436f66666565206265616e732068617665206265656e2070726f636573736564815250816009019080519060200190611913929190613e8b565b507f5afe3b1bf87069693c075da5c22a98d63d1aef98a30dbbe538d0781a98b77ee5846040518082815260200191505060405180910390a150505050565b600061195e600383613bb5565b9050919050565b60008060006060600080600080600080600181111561198057fe5b600960009054906101000a900460ff16600181111561199b57fe5b146119f1576040517f08c379a00000000000000000000000000000000000000000000000000000000081526004018080602001828103825260318152602001806140396031913960400191505060405180910390fd5b6119f9613f0b565b600760008c8152602001908152602001600020604051806101e001604052908160008201548152602001600182015481526020016002820160009054906101000a900473ffffffffffffffffffffffffffffffffffffffff1673ffffffffffffffffffffffffffffffffffffffff1673ffffffffffffffffffffffffffffffffffffffff1681526020016003820160009054906101000a900473ffffffffffffffffffffffffffffffffffffffff1673ffffffffffffffffffffffffffffffffffffffff1673ffffffffffffffffffffffffffffffffffffffff168152602001600482018054600181600116156101000203166002900480601f016020809104026020016040519081016040528092919081815260200182805460018160011615610100020316600290048015611b715780601f10611b4657610100808354040283529160200191611b71565b820191906000526020600020905b815481529060010190602001808311611b5457829003601f168201915b50505050508152602001600582018054600181600116156101000203166002900480601f016020809104026020016040519081016040528092919081815260200182805460018160011615610100020316600290048015611c135780601f10611be857610100808354040283529160200191611c13565b820191906000526020600020905b815481529060010190602001808311611bf657829003601f168201915b50505050508152602001600682018054600181600116156101000203166002900480601f016020809104026020016040519081016040528092919081815260200182805460018160011615610100020316600290048015611cb55780601f10611c8a57610100808354040283529160200191611cb5565b820191906000526020600020905b815481529060010190602001808311611c9857829003601f168201915b50505050508152602001600782018054600181600116156101000203166002900480601f016020809104026020016040519081016040528092919081815260200182805460018160011615610100020316600290048015611d575780601f10611d2c57610100808354040283529160200191611d57565b820191906000526020600020905b815481529060010190602001808311611d3a57829003601f168201915b5050505050815260200160088201548152602001600982018054600181600116156101000203166002900480601f016020809104026020016040519081016040528092919081815260200182805460018160011615610100020316600290048015611e035780601f10611dd857610100808354040283529160200191611e03565b820191906000526020600020905b815481529060010190602001808311611de657829003601f168201915b50505050508152602001600a8201548152602001600b820160009054906101000a900460ff166007811115611e3457fe5b6007811115611e3f57fe5b8152602001600b820160019054906101000a900473ffffffffffffffffffffffffffffffffffffffff1673ffffffffffffffffffffffffffffffffffffffff1673ffffffffffffffffffffffffffffffffffffffff168152602001600c820160009054906101000a900473ffffffffffffffffffffffffffffffffffffffff1673ffffffffffffffffffffffffffffffffffffffff1673ffffffffffffffffffffffffffffffffffffffff168152602001600d820160009054906101000a900473ffffffffffffffffffffffffffffffffffffffff1673ffffffffffffffffffffffffffffffffffffffff1673ffffffffffffffffffffffffffffffffffffffff16815250509050806000015181602001518261010001518361012001518461014001518561016001516007811115611f7457fe5b866101800151876101a00151886101c00151995099509950995099509950995099509950509193959799909294969850565b611fae612a3c565b611fb757600080fd5b600073ffffffffffffffffffffffffffffffffffffffff16600460009054906101000a900473ffffffffffffffffffffffffffffffffffffffff1673ffffffffffffffffffffffffffffffffffffffff167f5c486528ec3e3f0ea91181cff8116f02bfa350e03b8b6f12e00765adbb5af85c60405160405180910390a36000600460006101000a81548173ffffffffffffffffffffffffffffffffffffffff021916908373ffffffffffffffffffffffffffffffffffffffff160217905550565b61208133612966565b6120d6576040517f08c379a000000000000000000000000000000000000000000000000000000000815260040180806020018281038252602381526020018061406a6023913960400191505060405180910390fd5b6120df81613c47565b7fddbf200aa634dc3fb81cfd68583dd1040d1c751d335e1d86b631bde3e977fea881604051808273ffffffffffffffffffffffffffffffffffffffff16815260200191505060405180910390a150565b6000806000806060806060806000600181111561214857fe5b600960009054906101000a900460ff16600181111561216357fe5b146121b9576040517f08c379a00000000000000000000000000000000000000000000000000000000081526004018080602001828103825260318152602001806140396031913960400191505060405180910390fd5b6121c1613f0b565b600760008b8152602001908152602001600020604051806101e001604052908160008201548152602001600182015481526020016002820160009054906101000a900473ffffffffffffffffffffffffffffffffffffffff1673ffffffffffffffffffffffffffffffffffffffff1673ffffffffffffffffffffffffffffffffffffffff1681526020016003820160009054906101000a900473ffffffffffffffffffffffffffffffffffffffff1673ffffffffffffffffffffffffffffffffffffffff1673ffffffffffffffffffffffffffffffffffffffff168152602001600482018054600181600116156101000203166002900480601f0160208091040260200160405190810160405280929190818152602001828054600181600116156101000203166002900480156123395780601f1061230e57610100808354040283529160200191612339565b820191906000526020600020905b81548152906001019060200180831161231c57829003601f168201915b50505050508152602001600582018054600181600116156101000203166002900480601f0160208091040260200160405190810160405280929190818152602001828054600181600116156101000203166002900480156123db5780601f106123b0576101008083540402835291602001916123db565b820191906000526020600020905b8154815290600101906020018083116123be57829003601f168201915b50505050508152602001600682018054600181600116156101000203166002900480601f01602080910402602001604051908101604052809291908181526020018280546001816001161561010002031660029004801561247d5780601f106124525761010080835404028352916020019161247d565b820191906000526020600020905b81548152906001019060200180831161246057829003601f168201915b50505050508152602001600782018054600181600116156101000203166002900480601f01602080910402602001604051908101604052809291908181526020018280546001816001161561010002031660029004801561251f5780601f106124f45761010080835404028352916020019161251f565b820191906000526020600020905b81548152906001019060200180831161250257829003601f168201915b5050505050815260200160088201548152602001600982018054600181600116156101000203166002900480601f0160208091040260200160405190810160405280929190818152602001828054600181600116156101000203166002900480156125cb5780601f106125a0576101008083540402835291602001916125cb565b820191906000526020600020905b8154815290600101906020018083116125ae57829003601f168201915b50505050508152602001600a8201548152602001600b820160009054906101000a900460ff1660078111156125fc57fe5b600781111561260757fe5b8152602001600b820160019054906101000a900473ffffffffffffffffffffffffffffffffffffffff1673ffffffffffffffffffffffffffffffffffffffff1673ffffffffffffffffffffffffffffffffffffffff168152602001600c820160009054906101000a900473ffffffffffffffffffffffffffffffffffffffff1673ffffffffffffffffffffffffffffffffffffffff1673ffffffffffffffffffffffffffffffffffffffff168152602001600d820160009054906101000a900473ffffffffffffffffffffffffffffffffffffffff1673ffffffffffffffffffffffffffffffffffffffff1673ffffffffffffffffffffffffffffffffffffffff16815250509050806000015181602001518260400151836060015184608001518560a001518660c001518760e001519850985098509850985098509850985050919395975091939597565b6000600960009054906101000a900460ff16905090565b61277333612ccb565b61277c57600080fd5b61278581613c55565b50565b61279133613caf565b565b60006127a0600033613bb5565b612812576040517f08c379a00000000000000000000000000000000000000000000000000000000081526004018080602001828103825260188152602001807f43616c6c6572206973206e6f74206120436f6e73756d6572000000000000000081525060200191505060405180910390fd5b6000800160008373ffffffffffffffffffffffffffffffffffffffff1673ffffffffffffffffffffffffffffffffffffffff16815260200190815260200160002060009054906101000a900460ff169050919050565b6000600460009054906101000a900473ffffffffffffffffffffffffffffffffffffffff16905090565b61289b33611951565b61290d576040517f08c379a00000000000000000000000000000000000000000000000000000000081526004018080602001828103825260188152602001807f43616c6c6572206973206e6f7420612052657461696c6572000000000000000081525060200191505060405180910390fd5b61291681613d09565b7f71ae26cad02663e3d92efd6ec56031a80d74a20c0ab4183faa8bf262261c9baa81604051808273ffffffffffffffffffffffffffffffffffffffff16815260200191505060405180910390a150565b6000612973600133613bb5565b6129e5576040517f08c379a000000000000000000000000000000000000000000000000000000000815260040180806020018281038252601b8152602001807f43616c6c6572206973206e6f742061204469737472696275746f72000000000081525060200191505060405180910390fd5b600160000160008373ffffffffffffffffffffffffffffffffffffffff1673ffffffffffffffffffffffffffffffffffffffff16815260200190815260200160002060009054906101000a900460ff169050919050565b6000600460009054906101000a900473ffffffffffffffffffffffffffffffffffffffff1673ffffffffffffffffffffffffffffffffffffffff163373ffffffffffffffffffffffffffffffffffffffff1614905090565b60006001811115612aa157fe5b600960009054906101000a900460ff166001811115612abc57fe5b14612b12576040517f08c379a00000000000000000000000000000000000000000000000000000000081526004018080602001828103825260318152602001806140396031913960400191505060405180910390fd5b8060056007811115612b2057fe5b60076000838152602001908152602001600020600b0160009054906101000a900460ff166007811115612b4f57fe5b5050612b5a33611951565b612bcc576040517f08c379a00000000000000000000000000000000000000000000000000000000081526004018080602001828103825260188152602001807f43616c6c6572206973206e6f7420612052657461696c6572000000000000000081525060200191505060405180910390fd5b6000600760008481526020019081526020016000209050338160020160006101000a81548173ffffffffffffffffffffffffffffffffffffffff021916908373ffffffffffffffffffffffffffffffffffffffff1602179055503381600c0160006101000a81548173ffffffffffffffffffffffffffffffffffffffff021916908373ffffffffffffffffffffffffffffffffffffffff160217905550600681600b0160006101000a81548160ff02191690836007811115612c8a57fe5b02179055507fa8142743f8f70a4c26f3691cf4ed59718381fb2f18070ec52be1f1022d855557836040518082815260200191505060405180910390a1505050565b6000612ce1826002613bb590919063ffffffff16565b9050919050565b612cf133612966565b612d46576040517f08c379a000000000000000000000000000000000000000000000000000000000815260040180806020018281038252602381526020018061406a6023913960400191505060405180910390fd5b612d4f81613d17565b7f126174f6cf49c81cdb4a9214c6b8f037bef55b4ec31e4fc776cea2a1c8a88d5981604051808273ffffffffffffffffffffffffffffffffffffffff16815260200191505060405180910390a150565b60006001811115612dac57fe5b600960009054906101000a900460ff166001811115612dc757fe5b14612e1d576040517f08c379a00000000000000000000000000000000000000000000000000000000081526004018080602001828103825260318152602001806140396031913960400191505060405180910390fd5b612e2633612ccb565b612e2f57600080fd5b60006007600089815260200190815260200160002090506001600554148015612e5a57506001600654145b15612e6e5760018160010181905550612e7e565b6005546006540181600101819055505b6006548160000181905550338160020160006101000a81548173ffffffffffffffffffffffffffffffffffffffff021916908373ffffffffffffffffffffffffffffffffffffffff160217905550868160030160006101000a81548173ffffffffffffffffffffffffffffffffffffffff021916908373ffffffffffffffffffffffffffffffffffffffff16021790555085816004019080519060200190612f27929190613e8b565b5084816005019080519060200190612f40929190613e8b565b5083816006019080519060200190612f59929190613e8b565b5082816007019080519060200190612f72929190613e8b565b5060055460065401816008018190555081816009019080519060200190612f9a929190613e8b565b50600081600b0160006101000a81548160ff02191690836007811115612fbc57fe5b02179055506001600654016006819055507f8e55ccfc9778ff8eba1646d765cf1982537ce0f9257054a17b48aad745250183886040518082815260200191505060405180910390a15050505050505050565b6000600181111561301b57fe5b600960009054906101000a900460ff16600181111561303657fe5b1461308c576040517f08c379a00000000000000000000000000000000000000000000000000000000081526004018080602001828103825260318152602001806140396031913960400191505060405180910390fd5b61309533612793565b613107576040517f08c379a00000000000000000000000000000000000000000000000000000000081526004018080602001828103825260188152602001807f43616c6c6572206973206e6f74206120436f6e73756d6572000000000000000081525060200191505060405180910390fd5b806006600781111561311557fe5b60076000838152602001908152602001600020600b0160009054906101000a900460ff16600781111561314457fe5b50506000600760008481526020019081526020016000209050338160020160006101000a81548173ffffffffffffffffffffffffffffffffffffffff021916908373ffffffffffffffffffffffffffffffffffffffff160217905550600781600b0160006101000a81548160ff021916908360078111156131c157fe5b02179055503381600d0160006101000a81548173ffffffffffffffffffffffffffffffffffffffff021916908373ffffffffffffffffffffffffffffffffffffffff1602179055507f653d56639fee6b566a5c804764e9689de38645f0b733df89a36a1b7b42173dd8836040518082815260200191505060405180910390a1505050565b6000600181111561325257fe5b600960009054906101000a900460ff16600181111561326d57fe5b146132c3576040517f08c379a00000000000000000000000000000000000000000000000000000000081526004018080602001828103825260318152602001806140396031913960400191505060405180910390fd5b80600360078111156132d157fe5b60076000838152602001908152602001600020600b0160009054906101000a900460ff16600781111561330057fe5b505081600060076000838152602001908152602001600020600a0154905061332733612966565b61337c576040517f08c379a000000000000000000000000000000000000000000000000000000000815260040180806020018281038252602381526020018061406a6023913960400191505060405180910390fd5b8360006007600087815260200190815260200160002090503381600b0160016101000a81548173ffffffffffffffffffffffffffffffffffffffff021916908373ffffffffffffffffffffffffffffffffffffffff160217905550338160020160006101000a81548173ffffffffffffffffffffffffffffffffffffffff021916908373ffffffffffffffffffffffffffffffffffffffff160217905550600481600b0160006101000a81548160ff0219169083600781111561343b57fe5b021790555060008160020160009054906101000a900473ffffffffffffffffffffffffffffffffffffffff1690508073ffffffffffffffffffffffffffffffffffffffff166108fc83600a01549081150290604051600060405180830381858888f193505050501580156134b3573d6000803e3d6000fd5b507f92f64ca637d023f354075a4be751b169c1a8a9ccb6d33cdd0cb3520543995727876040518082815260200191505060405180910390a15050600060076000838152602001908152602001600020600a0154905060008134039050600060076000858152602001908152602001600020600d0160009054906101000a900473ffffffffffffffffffffffffffffffffffffffff1690508073ffffffffffffffffffffffffffffffffffffffff166108fc839081150290604051600060405180830381858888f19350505050158015613590573d6000803e3d6000fd5b505050505050505050565b600960009054906101000a900460ff1681565b6135b6612a3c565b6135bf57600080fd5b6135c881613d25565b50565b600060018111156135d857fe5b600960009054906101000a900460ff1660018111156135f357fe5b14613649576040517f08c379a00000000000000000000000000000000000000000000000000000000081526004018080602001828103825260318152602001806140396031913960400191505060405180910390fd5b806001600781111561365757fe5b60076000838152602001908152602001600020600b0160009054906101000a900460ff16600781111561368657fe5b505061369133612ccb565b61369a57600080fd5b813373ffffffffffffffffffffffffffffffffffffffff166007600083815260200190815260200160002060030160009054906101000a900473ffffffffffffffffffffffffffffffffffffffff1673ffffffffffffffffffffffffffffffffffffffff1614613755576040517f08c379a000000000000000000000000000000000000000000000000000000000815260040180806020018281038252603381526020018061408d6033913960400191505060405180910390fd5b6000600760008581526020019081526020016000209050600281600b0160006101000a81548160ff0219169083600781111561378d57fe5b02179055508060090160405160200180828054600181600116156101000203166002900480156137f45780601f106137d25761010080835404028352918201916137f4565b820191906000526020600020905b8154815290600101906020018083116137e0575b5050807f0a205061636b6564206f6e204d61792031307468203230323100000000000000815250601901915050604051602081830303815290604052816009019080519060200190613847929190613e8b565b507f9b3b66e2380b690bae22c73ef1428fb0c91e72fe14a4b6defa13035214187aff846040518082815260200191505060405180910390a150505050565b61388e33612793565b613900576040517f08c379a00000000000000000000000000000000000000000000000000000000081526004018080602001828103825260188152602001807f43616c6c6572206973206e6f74206120436f6e73756d6572000000000000000081525060200191505060405180910390fd5b61390981613e1f565b7fe3f5ed5f263f1f01764a96edfc7d025f511ec5f7d180e8816908b78bcf74f09881604051808273ffffffffffffffffffffffffffffffffffffffff16815260200191505060405180910390a150565b6000600181111561396657fe5b600960009054906101000a900460ff16600181111561398157fe5b146139d7576040517f08c379a00000000000000000000000000000000000000000000000000000000081526004018080602001828103825260318152602001806140396031913960400191505060405180910390fd5b80600360078111156139e557fe5b60076000838152602001908152602001600020600b0160009054906101000a900460ff166007811115613a1457fe5b5050613a1f33612966565b613a74576040517f08c379a000000000000000000000000000000000000000000000000000000000815260040180806020018281038252602381526020018061406a6023913960400191505060405180910390fd5b6000600760008481526020019081526020016000209050600581600b0160006101000a81548160ff02191690836007811115613aac57fe5b02179055507ff00b9a5725b80c54016f42114f6ed7792d22eecb116011c4afac29c57bef6c95836040518082815260200191505060405180910390a1505050565b600073ffffffffffffffffffffffffffffffffffffffff168173ffffffffffffffffffffffffffffffffffffffff161415613b2757600080fd5b613b318282613bb5565b15613b3b57600080fd5b60018260000160008373ffffffffffffffffffffffffffffffffffffffff1673ffffffffffffffffffffffffffffffffffffffff16815260200190815260200160002060006101000a81548160ff0219169083151502179055505050565b613ba4600382613e2d565b50565b613bb2600082613aed565b50565b60008073ffffffffffffffffffffffffffffffffffffffff168273ffffffffffffffffffffffffffffffffffffffff161415613bf057600080fd5b8260000160008373ffffffffffffffffffffffffffffffffffffffff1673ffffffffffffffffffffffffffffffffffffffff16815260200190815260200160002060009054906101000a900460ff16905092915050565b613c52600182613aed565b50565b613c69816002613aed90919063ffffffff16565b8073ffffffffffffffffffffffffffffffffffffffff167f2e0ded4123377a3c2bc9a26f1717655a129e2f20752924d42e730ec89c83dbd060405160405180910390a250565b613cc3816002613e2d90919063ffffffff16565b8073ffffffffffffffffffffffffffffffffffffffff167fa5e0f060af304ab17dd418c7927e3da3ae7868189bf387aee09ab179ccc572f260405160405180910390a250565b613d14600382613aed565b50565b613d22600182613e2d565b50565b600073ffffffffffffffffffffffffffffffffffffffff168173ffffffffffffffffffffffffffffffffffffffff161415613d5f57600080fd5b8073ffffffffffffffffffffffffffffffffffffffff16600460009054906101000a900473ffffffffffffffffffffffffffffffffffffffff1673ffffffffffffffffffffffffffffffffffffffff167f5c486528ec3e3f0ea91181cff8116f02bfa350e03b8b6f12e00765adbb5af85c60405160405180910390a380600460006101000a81548173ffffffffffffffffffffffffffffffffffffffff021916908373ffffffffffffffffffffffffffffffffffffffff16021790555050565b613e2a600082613e2d565b50565b60008260000160008373ffffffffffffffffffffffffffffffffffffffff1673ffffffffffffffffffffffffffffffffffffffff16815260200190815260200160002060006101000a81548160ff0219169083151502179055505050565b828054600181600116156101000203166002900490600052602060002090601f016020900481019282601f10613ecc57805160ff1916838001178555613efa565b82800160010185558215613efa579182015b82811115613ef9578251825591602001919060010190613ede565b5b509050613f079190613ffa565b5090565b604051806101e001604052806000815260200160008152602001600073ffffffffffffffffffffffffffffffffffffffff168152602001600073ffffffffffffffffffffffffffffffffffffffff1681526020016060815260200160608152602001606081526020016060815260200160008152602001606081526020016000815260200160006007811115613f9d57fe5b8152602001600073ffffffffffffffffffffffffffffffffffffffff168152602001600073ffffffffffffffffffffffffffffffffffffffff168152602001600073ffffffffffffffffffffffffffffffffffffffff1681525090565b5b80821115614013576000816000905550600101613ffb565b509056fe50726963652073686f756c642062652067726561746572207468616e207a65726f54686520636f6e747261637420686173206265656e2070617573656420666f7220736563757269747920726561736f6e734d6573736167652053656e646572206973206e6f742061204469737472696275746f724f6e6c7920746865206f726967696e206661726d65722063616e206368616e67652074686973206974656d2773207374617465a2646970667358221220cb49ab1241121d461374f3025041136390827e5edc93d550e534cabb565c34e264736f6c63430007010033",
  "immutableReferences": {},
  "source": "pragma solidity 0.7.1;\n// Define a contract 'Supplychain'\n import \"../coffeeaccesscontrol/DistributorRole.sol\";\n import \"../coffeeaccesscontrol/ConsumerRole.sol\";\n import \"../coffeeaccesscontrol/FarmerRole.sol\";\n import \"../coffeeaccesscontrol/RetailerRole.sol\";\n import \"../coffeecore/Ownable.sol\";\n\ncontract SupplyChain is ConsumerRole, DistributorRole, FarmerRole, RetailerRole, Ownable {\n  // Define a variable called 'upc' for Universal Product Code (UPC)\n  uint  upc;\n\n  // Define a variable called 'sku' for Stock Keeping Unit (SKU)\n  uint  sku;\n\n  // Define a public mapping 'items' that maps the UPC to an Item.\n  mapping (uint => Item) items;\n\n  // Define a public mapping 'itemsHistory' that maps the UPC to an array of TxHash, \n  // that track its journey through the supply chain -- to be sent from DApp.\n  mapping (uint => string[]) itemsHistory;\n\n  enum ContractState {On, Paused}\n\n  ContractState public currentContractState;\n  \n  // Define enum 'State' with the following values:\n  enum State \n  { \n    Harvested,  // 0\n    Processed,  // 1\n    Packed,     // 2\n    ForSale,    // 3\n    Sold,       // 4\n    Shipped,    // 5\n    Received,   // 6\n    Purchased   // 7\n    }\n\n  State constant defaultState = State.Harvested;\n\n  // Define a struct 'Item' with the following fields:\n  struct Item {\n    uint    sku;  // Stock Keeping Unit (SKU)\n    uint    upc; // Universal Product Code (UPC), generated by the Farmer, goes on the package, can be verified by the Consumer\n    address ownerID;  // Metamask-Ethereum address of the current owner as the product moves through 8 stages\n    address originFarmerID; // Metamask-Ethereum address of the Farmer\n    string  originFarmName; // Farmer Name\n    string  originFarmInformation;  // Farmer Information\n    string  originFarmLatitude; // Farm Latitude\n    string  originFarmLongitude;  // Farm Longitude\n    uint    productID;  // Product ID potentially a combination of upc + sku\n    string  productNotes; // Product Notes\n    uint    productPrice; // Product Price\n    State   itemState;  // Product State as represented in the enum above\n    address distributorID;  // Metamask-Ethereum address of the Distributor\n    address retailerID; // Metamask-Ethereum address of the Retailer\n    address consumerID; // Metamask-Ethereum address of the Consumer\n  }\n\n  // Define 8 events with the same 8 state values and accept 'upc' as input argument\n  event Harvested(uint upc);\n  event Processed(uint upc);\n  event Packed(uint upc);\n  event ForSale(uint upc);\n  event Sold(uint upc);\n  event Shipped(uint upc);\n  event Received(uint upc);\n  event Purchased(uint upc);\n\n  // Define a modifer that checks to see if msg.sender == owner of the contract\n  // DEFINED IN OWNABLE\n  // modifier onlyOwner() {\n  //   (msg.sender == owner);\n  //   _;\n  // }\n  \n  modifier verifyNotPaused(){\n    require(currentContractState == ContractState.On, \"The contract has been paused for security reasons\");\n    _;\n  }\n\n  // Define a modifer that verifies the Caller\n  modifier verifyCaller (address _address) {\n    (msg.sender == _address); \n    _;\n  }\n\n  // Define a modifier that checks if the paid amount is sufficient to cover the price\n  modifier paidEnough(uint _upc) { \n    uint price = items[_upc].productPrice;\n    (msg.value >= price); \n    _;\n  }\n  \n  // Define a modifier that checks the price and refunds the remaining balance\n  modifier checkValue(uint _upc) {\n    _;\n    uint _price = items[_upc].productPrice;\n    uint amountToReturn = msg.value - _price;\n    address payable consumerAddress = payable(items[_upc].consumerID);\n    consumerAddress.transfer(amountToReturn);\n  }\n\n  // Define a modifier that checks if an item.state of a upc is Harvested\n  modifier harvested(uint _upc) {\n    (items[_upc].itemState == State.Harvested);\n    _;\n  }\n\n  // Define a modifier that checks if an item.state of a upc is Processed\n  modifier processed(uint _upc) {\n    (items[_upc].itemState == State.Processed);\n    _;\n  }\n  \n  // Define a modifier that checks if an item.state of a upc is Packed\n  modifier packed(uint _upc) {\n    (items[_upc].itemState == State.Packed);\n    _;\n  }\n\n  // Define a modifier that checks if an item.state of a upc is ForSale\n  modifier forSale(uint _upc) {\n    (items[_upc].itemState == State.ForSale);\n    _;\n  }\n\n  // Define a modifier that checks if an item.state of a upc is Sold\n  modifier sold(uint _upc) {\n    (items[_upc].itemState == State.Sold);\n    _;\n  }\n  \n  // Define a modifier that checks if an item.state of a upc is Shipped\n  modifier shipped(uint _upc) {\n    (items[_upc].itemState == State.Shipped);\n    _;\n  }\n\n  // Define a modifier that checks if an item.state of a upc is Received\n  modifier received(uint _upc) {\n    (items[_upc].itemState == State.Received);\n    _;\n  }\n\n  // Define a modifier that checks if an item.state of a upc is Purchased\n  modifier purchased(uint _upc) {\n    (items[_upc].itemState == State.Purchased);\n    _;\n  }\n  modifier greaterThanZero(uint _price){\n    require(_price > 0, \"Price should be greater than zero\");\n    _;\n  }\n\n  modifier onlyOriginFarmer(uint _upc) {\n    require(items[_upc].originFarmerID == msg.sender, \"Only the origin farmer can change this item's state\");\n    _;\n  }\n\n  // In the constructor set 'owner' to the address that instantiated the contract\n  // and set 'sku' to 1\n  // and set 'upc' to 1\n  constructor() payable {\n    sku = 1;\n    upc = 1;\n    currentContractState = ContractState.On;\n  }\n\n  // Define a function 'kill' if d\n  function kill() public onlyOwner() {\n    address thisOwner = owner();\n    selfdestruct(payable(thisOwner));\n  }\n\n  // Define a function 'harvestItem' that allows a farmer to mark an item 'Harvested'\n  function harvestItem(\n    uint _upc,\n    address _originFarmerID,\n    string memory _originFarmName,\n    string  memory  _originFarmInformation,\n    string   memory  _originFarmLatitude,\n    string  memory   _originFarmLongitude,\n    string   memory  _productNotes) \n    public \n    verifyNotPaused()\n    onlyFarmer()\n  {\n    // Add the new item as part of Harvest\n    Item storage item = items[_upc];\n    if(upc == 1 && sku == 1){\n      // Very first item\n      item.upc = 1;\n    } else {\n      item.upc = sku + upc;\n    }\n    item.sku = sku;\n    item.ownerID = msg.sender;\n    item.originFarmerID = _originFarmerID;\n    item.originFarmName = _originFarmName;\n    item.originFarmInformation = _originFarmInformation;\n    item.originFarmLatitude = _originFarmLatitude;\n    item.originFarmLongitude = _originFarmLongitude;\n    item.productID = sku + upc;\n    item.productNotes = _productNotes;\n    item.itemState = State.Harvested;\n    // Increment sku\n    sku = sku + 1;\n    // Emit the appropriate event\n    emit Harvested(_upc);\n  }\n\n  function getContractState() public view returns(ContractState){\n    return currentContractState;\n  }\n\n  function pauseContract() public onlyOwner() returns(bool){\n    require(currentContractState != ContractState.Paused, \"Contract is already paused\");\n    currentContractState = ContractState.Paused;\n    require(currentContractState == ContractState.Paused, \"Failed to pause the contract\");\n    return true;\n  } \n\n  function restartContract() public onlyOwner() returns(bool){\n    require(currentContractState != ContractState.On, \"Contract is already on\");\n    currentContractState = ContractState.On;\n    require(currentContractState == ContractState.On, \"Failed to restart the contract\");\n    return true;\n  }\n\n  // Define a function 'processtItem' that allows a farmer to mark an item 'Processed'\n  function processItem(uint _upc) public verifyNotPaused()\n  // Call modifier to check if upc has passed previous supply chain stage\n    harvested(_upc)\n  // Call modifier to verify caller of this function\n    onlyFarmer()\n    onlyOriginFarmer(_upc)\n  {\n    Item storage item = items[_upc];\n    item.itemState = State.Processed;\n    item.productNotes = \"Coffee beans have been processed\";    \n    // Emit the appropriate event\n    emit Processed(_upc);\n  }\n\n  // Define a function 'packItem' that allows a farmer to mark an item 'Packed'\n  function packItem(uint _upc) public verifyNotPaused()\n  // Call modifier to check if upc has passed previous supply chain stage\n  processed(_upc)\n  // Call modifier to verify caller of this function\n  onlyFarmer()\n  onlyOriginFarmer(_upc)\n  {\n    Item storage item = items[_upc];\n    // Update the appropriate fields\n    item.itemState = State.Packed;\n    item.productNotes = string(abi.encodePacked(item.productNotes, \"\\n Packed on May 10th 2021\"));\n    // Emit the appropriate event\n    emit Packed(_upc);\n  }\n\n  // Define a function 'sellItem' that allows a farmer to mark an item 'ForSale'\n  function sellItem(uint _upc, uint _price) public verifyNotPaused()\n  // Call modifier to check if upc has passed previous supply chain stage\n  packed(_upc)\n  // Call modifier to verify caller of this function\n  greaterThanZero(_price)\n  onlyFarmer()\n  onlyOriginFarmer(_upc)\n  {\n    Item storage item = items[_upc];\n    item.productPrice = _price;\n    // Update the appropriate fields\n    item.itemState = State.ForSale;\n    // Emit the appropriate event\n    emit ForSale(_upc);\n  }\n\n  // Define a function 'buyItem' that allows the disributor to mark an item 'Sold'\n  // Use the above defined modifiers to check if the item is available for sale, if the buyer has paid enough, \n  // and any excess ether sent is refunded back to the buyer\n  function buyItem(uint _upc) public payable verifyNotPaused()\n    // Call modifier to check if upc has passed previous supply chain stage\n    forSale(_upc)\n    // Call modifer to check if buyer has paid enough\n    paidEnough(_upc)\n    onlyDistributor()\n    // Call modifer to send any excess ether back to buyer\n    checkValue(_upc)\n    {\n    Item storage item = items[_upc];\n    // Update the appropriate fields - ownerID, distributorID, itemState\n    item.distributorID = msg.sender;\n    item.ownerID = msg.sender;\n    item.itemState = State.Sold;\n    // Transfer money to farmer\n    address payable farmerAddress = payable(item.ownerID);\n    farmerAddress.transfer(item.productPrice);\n    // emit the appropriate event\n    emit Sold(_upc);\n  }\n\n  // Define a function 'shipItem' that allows the distributor to mark an item 'Shipped'\n  // Use the above modifers to check if the item is sold\n  function shipItem(uint _upc) public verifyNotPaused()\n    // Call modifier to check if upc has passed previous supply chain stage\n    forSale(_upc)\n    // Call modifier to verify caller of this function\n     onlyDistributor()\n  {\n    Item storage item = items[_upc];\n    // Update the appropriate fields\n    item.itemState = State.Shipped;    \n    // Emit the appropriate event\n    emit Shipped(_upc);\n  }\n\n  // Define a function 'receiveItem' that allows the retailer to mark an item 'Received'\n  // Use the above modifiers to check if the item is shipped\n  function receiveItem(uint _upc) public verifyNotPaused()\n    // Call modifier to check if upc has passed previous supply chain stage\n    shipped(_upc)\n    onlyRetailer()\n    // Access Control List enforced by calling Smart Contract / DApp\n    {\n    Item storage item = items[_upc];\n    // Update the appropriate fields - ownerID, retailerID, itemState\n    item.ownerID = msg.sender;\n    item.retailerID = msg.sender;\n    item.itemState = State.Received;\n    // Emit the appropriate event\n    emit Received(_upc);\n  }\n\n  // Define a function 'purchaseItem' that allows the consumer to mark an item 'Purchased'\n  // Use the above modifiers to check if the item is received\n  function purchaseItem(uint _upc) public verifyNotPaused()\n    onlyConsumer()\n    received(_upc)\n    // Call modifier to check if upc has passed previous supply chain stage\n    \n    // Access Control List enforced by calling Smart Contract / DApp\n    {\n    Item storage item = items[_upc];\n    // Update the appropriate fields - ownerID, consumerID, itemState\n    item.ownerID = msg.sender;\n    item.itemState = State.Purchased;\n    item.consumerID = msg.sender;\n    // Emit the appropriate event\n    emit Purchased(_upc);\n  }\n\n  // Define a function 'fetchItemBufferOne' that fetches the data\n  function fetchItemBufferOne(uint _upc) public view verifyNotPaused() returns \n  (\n  uint    itemSKU,\n  uint    itemUPC,\n  address ownerID,\n  address originFarmerID,\n  string  memory originFarmName,\n  string  memory originFarmInformation,\n  string  memory originFarmLatitude,\n  string  memory originFarmLongitude\n  ) \n  {\n  Item memory item = items[_upc];\n  return \n  (\n  item.sku,\n  item.upc,\n  item.ownerID,\n  item.originFarmerID,\n  item.originFarmName,\n  item.originFarmInformation,\n  item.originFarmLatitude,\n  item.originFarmLongitude\n  );\n  }\n\n  // Define a function 'fetchItemBufferTwo' that fetches the data\n  function fetchItemBufferTwo(uint _upc) public view verifyNotPaused() returns \n  (\n  uint    itemSKU,\n  uint    itemUPC,\n  uint    productID,\n  string memory productNotes,\n  uint    productPrice,\n  uint    itemState,\n  address distributorID,\n  address retailerID,\n  address consumerID\n  ) \n  {\n  Item memory item = items[_upc];\n  return \n  (\n  item.sku,\n  item.upc,\n  item.productID,\n  item.productNotes,\n  item.productPrice,\n  uint(item.itemState),\n  item.distributorID,\n  item.retailerID,\n  item.consumerID\n  );\n  }\n}",
  "sourcePath": "/Users/tom/udacity/project3/nd1309-Project-6b-Example-Template/project-6/contracts/coffeebase/SupplyChain.sol",
  "compiler": {
    "name": "solc",
    "version": "0.7.1+commit.f4a555be.Linux.g++"
  },
  "schemaVersion": "3.3.3",
  "updatedAt": "2021-05-11T14:39:19.588Z",
  "devdoc": {
    "kind": "dev",
    "methods": {},
    "version": 1
  },
  "userdoc": {
    "kind": "user",
    "methods": {
      "isOwner()": {
        "notice": "Check if the calling address is the owner of the contract"
      },
      "owner()": {
        "notice": "Look up the address of the owner"
      },
      "renounceOwnership()": {
        "notice": "Define a function to renounce ownerhip"
      },
      "transferOwnership(address)": {
        "notice": "Define a public function to transfer ownership"
      }
    },
    "version": 1
  }
}