{
  "contractName": "SupplyChain",
  "abi": [
    {
      "inputs": [],
      "stateMutability": "payable",
      "type": "constructor",
      "payable": true
    },
    {
      "anonymous": false,
      "inputs": [
        {
          "indexed": false,
          "internalType": "address",
          "name": "account",
          "type": "address"
        }
      ],
      "name": "ConsumerAdded",
      "type": "event"
    },
    {
      "anonymous": false,
      "inputs": [
        {
          "indexed": false,
          "internalType": "address",
          "name": "account",
          "type": "address"
        }
      ],
      "name": "ConsumerRemoved",
      "type": "event"
    },
    {
      "anonymous": false,
      "inputs": [
        {
          "indexed": false,
          "internalType": "address",
          "name": "distributorAddress",
          "type": "address"
        }
      ],
      "name": "DistributorAdded",
      "type": "event"
    },
    {
      "anonymous": false,
      "inputs": [
        {
          "indexed": false,
          "internalType": "address",
          "name": "distributorAddress",
          "type": "address"
        }
      ],
      "name": "DistributorRemoved",
      "type": "event"
    },
    {
      "anonymous": false,
      "inputs": [
        {
          "indexed": true,
          "internalType": "address",
          "name": "account",
          "type": "address"
        }
      ],
      "name": "FarmerAdded",
      "type": "event"
    },
    {
      "anonymous": false,
      "inputs": [
        {
          "indexed": true,
          "internalType": "address",
          "name": "account",
          "type": "address"
        }
      ],
      "name": "FarmerRemoved",
      "type": "event"
    },
    {
      "anonymous": false,
      "inputs": [
        {
          "indexed": false,
          "internalType": "uint256",
          "name": "upc",
          "type": "uint256"
        }
      ],
      "name": "ForSale",
      "type": "event"
    },
    {
      "anonymous": false,
      "inputs": [
        {
          "indexed": false,
          "internalType": "uint256",
          "name": "upc",
          "type": "uint256"
        }
      ],
      "name": "Harvested",
      "type": "event"
    },
    {
      "anonymous": false,
      "inputs": [
        {
          "indexed": false,
          "internalType": "uint256",
          "name": "upc",
          "type": "uint256"
        }
      ],
      "name": "Packed",
      "type": "event"
    },
    {
      "anonymous": false,
      "inputs": [
        {
          "indexed": false,
          "internalType": "uint256",
          "name": "upc",
          "type": "uint256"
        }
      ],
      "name": "Processed",
      "type": "event"
    },
    {
      "anonymous": false,
      "inputs": [
        {
          "indexed": false,
          "internalType": "uint256",
          "name": "upc",
          "type": "uint256"
        }
      ],
      "name": "Purchased",
      "type": "event"
    },
    {
      "anonymous": false,
      "inputs": [
        {
          "indexed": false,
          "internalType": "uint256",
          "name": "upc",
          "type": "uint256"
        }
      ],
      "name": "Received",
      "type": "event"
    },
    {
      "anonymous": false,
      "inputs": [
        {
          "indexed": false,
          "internalType": "address",
          "name": "retailerAddress",
          "type": "address"
        }
      ],
      "name": "RetailerAdded",
      "type": "event"
    },
    {
      "anonymous": false,
      "inputs": [
        {
          "indexed": false,
          "internalType": "address",
          "name": "retailerAddress",
          "type": "address"
        }
      ],
      "name": "RetailerRemoved",
      "type": "event"
    },
    {
      "anonymous": false,
      "inputs": [
        {
          "indexed": false,
          "internalType": "uint256",
          "name": "upc",
          "type": "uint256"
        }
      ],
      "name": "Shipped",
      "type": "event"
    },
    {
      "anonymous": false,
      "inputs": [
        {
          "indexed": false,
          "internalType": "uint256",
          "name": "upc",
          "type": "uint256"
        }
      ],
      "name": "Sold",
      "type": "event"
    },
    {
      "anonymous": false,
      "inputs": [
        {
          "indexed": true,
          "internalType": "address",
          "name": "oldOwner",
          "type": "address"
        },
        {
          "indexed": true,
          "internalType": "address",
          "name": "newOwner",
          "type": "address"
        }
      ],
      "name": "TransferOwnership",
      "type": "event"
    },
    {
      "inputs": [
        {
          "internalType": "address",
          "name": "account",
          "type": "address"
        }
      ],
      "name": "addConsumer",
      "outputs": [],
      "stateMutability": "nonpayable",
      "type": "function"
    },
    {
      "inputs": [
        {
          "internalType": "address",
          "name": "account",
          "type": "address"
        }
      ],
      "name": "addDistributor",
      "outputs": [],
      "stateMutability": "nonpayable",
      "type": "function"
    },
    {
      "inputs": [
        {
          "internalType": "address",
          "name": "account",
          "type": "address"
        }
      ],
      "name": "addFarmer",
      "outputs": [],
      "stateMutability": "nonpayable",
      "type": "function"
    },
    {
      "inputs": [
        {
          "internalType": "address",
          "name": "account",
          "type": "address"
        }
      ],
      "name": "addRetailer",
      "outputs": [],
      "stateMutability": "nonpayable",
      "type": "function"
    },
    {
      "inputs": [],
      "name": "currentContractState",
      "outputs": [
        {
          "internalType": "enum SupplyChain.ContractState",
          "name": "",
          "type": "uint8"
        }
      ],
      "stateMutability": "view",
      "type": "function",
      "constant": true
    },
    {
      "inputs": [
        {
          "internalType": "address",
          "name": "account",
          "type": "address"
        }
      ],
      "name": "isConsumer",
      "outputs": [
        {
          "internalType": "bool",
          "name": "",
          "type": "bool"
        }
      ],
      "stateMutability": "view",
      "type": "function",
      "constant": true
    },
    {
      "inputs": [
        {
          "internalType": "address",
          "name": "account",
          "type": "address"
        }
      ],
      "name": "isDistributor",
      "outputs": [
        {
          "internalType": "bool",
          "name": "",
          "type": "bool"
        }
      ],
      "stateMutability": "view",
      "type": "function",
      "constant": true
    },
    {
      "inputs": [
        {
          "internalType": "address",
          "name": "account",
          "type": "address"
        }
      ],
      "name": "isFarmer",
      "outputs": [
        {
          "internalType": "bool",
          "name": "",
          "type": "bool"
        }
      ],
      "stateMutability": "view",
      "type": "function",
      "constant": true
    },
    {
      "inputs": [],
      "name": "isOwner",
      "outputs": [
        {
          "internalType": "bool",
          "name": "",
          "type": "bool"
        }
      ],
      "stateMutability": "view",
      "type": "function",
      "constant": true
    },
    {
      "inputs": [
        {
          "internalType": "address",
          "name": "account",
          "type": "address"
        }
      ],
      "name": "isRetailer",
      "outputs": [
        {
          "internalType": "bool",
          "name": "",
          "type": "bool"
        }
      ],
      "stateMutability": "view",
      "type": "function",
      "constant": true
    },
    {
      "inputs": [],
      "name": "owner",
      "outputs": [
        {
          "internalType": "address",
          "name": "",
          "type": "address"
        }
      ],
      "stateMutability": "view",
      "type": "function",
      "constant": true
    },
    {
      "inputs": [
        {
          "internalType": "address",
          "name": "account",
          "type": "address"
        }
      ],
      "name": "renounceConsumer",
      "outputs": [],
      "stateMutability": "nonpayable",
      "type": "function"
    },
    {
      "inputs": [
        {
          "internalType": "address",
          "name": "account",
          "type": "address"
        }
      ],
      "name": "renounceDistributor",
      "outputs": [],
      "stateMutability": "nonpayable",
      "type": "function"
    },
    {
      "inputs": [
        {
          "internalType": "address",
          "name": "account",
          "type": "address"
        }
      ],
      "name": "renounceFarmer",
      "outputs": [],
      "stateMutability": "nonpayable",
      "type": "function"
    },
    {
      "inputs": [],
      "name": "renounceOwnership",
      "outputs": [],
      "stateMutability": "nonpayable",
      "type": "function"
    },
    {
      "inputs": [
        {
          "internalType": "address",
          "name": "account",
          "type": "address"
        }
      ],
      "name": "renounceRetailer",
      "outputs": [],
      "stateMutability": "nonpayable",
      "type": "function"
    },
    {
      "inputs": [
        {
          "internalType": "address",
          "name": "newOwner",
          "type": "address"
        }
      ],
      "name": "transferOwnership",
      "outputs": [],
      "stateMutability": "nonpayable",
      "type": "function"
    },
    {
      "inputs": [],
      "name": "kill",
      "outputs": [],
      "stateMutability": "nonpayable",
      "type": "function"
    },
    {
      "inputs": [
        {
          "internalType": "uint256",
          "name": "_upc",
          "type": "uint256"
        },
        {
          "internalType": "address",
          "name": "_originFarmerID",
          "type": "address"
        },
        {
          "internalType": "string",
          "name": "_originFarmName",
          "type": "string"
        },
        {
          "internalType": "string",
          "name": "_originFarmInformation",
          "type": "string"
        },
        {
          "internalType": "string",
          "name": "_originFarmLatitude",
          "type": "string"
        },
        {
          "internalType": "string",
          "name": "_originFarmLongitude",
          "type": "string"
        },
        {
          "internalType": "string",
          "name": "_productNotes",
          "type": "string"
        }
      ],
      "name": "harvestItem",
      "outputs": [],
      "stateMutability": "nonpayable",
      "type": "function"
    },
    {
      "inputs": [
        {
          "internalType": "uint256",
          "name": "_upc",
          "type": "uint256"
        }
      ],
      "name": "getItemState",
      "outputs": [
        {
          "internalType": "enum SupplyChain.State",
          "name": "state",
          "type": "uint8"
        }
      ],
      "stateMutability": "view",
      "type": "function",
      "constant": true
    },
    {
      "inputs": [],
      "name": "getContractState",
      "outputs": [
        {
          "internalType": "enum SupplyChain.ContractState",
          "name": "",
          "type": "uint8"
        }
      ],
      "stateMutability": "view",
      "type": "function",
      "constant": true
    },
    {
      "inputs": [],
      "name": "pauseContract",
      "outputs": [
        {
          "internalType": "bool",
          "name": "",
          "type": "bool"
        }
      ],
      "stateMutability": "nonpayable",
      "type": "function"
    },
    {
      "inputs": [],
      "name": "restartContract",
      "outputs": [
        {
          "internalType": "bool",
          "name": "",
          "type": "bool"
        }
      ],
      "stateMutability": "nonpayable",
      "type": "function"
    },
    {
      "inputs": [
        {
          "internalType": "uint256",
          "name": "_upc",
          "type": "uint256"
        }
      ],
      "name": "processItem",
      "outputs": [],
      "stateMutability": "nonpayable",
      "type": "function"
    },
    {
      "inputs": [
        {
          "internalType": "uint256",
          "name": "_upc",
          "type": "uint256"
        }
      ],
      "name": "packItem",
      "outputs": [],
      "stateMutability": "nonpayable",
      "type": "function"
    },
    {
      "inputs": [
        {
          "internalType": "uint256",
          "name": "_upc",
          "type": "uint256"
        },
        {
          "internalType": "uint256",
          "name": "_price",
          "type": "uint256"
        }
      ],
      "name": "sellItem",
      "outputs": [],
      "stateMutability": "nonpayable",
      "type": "function"
    },
    {
      "inputs": [
        {
          "internalType": "uint256",
          "name": "_upc",
          "type": "uint256"
        }
      ],
      "name": "buyItem",
      "outputs": [],
      "stateMutability": "payable",
      "type": "function",
      "payable": true
    },
    {
      "inputs": [
        {
          "internalType": "uint256",
          "name": "_upc",
          "type": "uint256"
        }
      ],
      "name": "shipItem",
      "outputs": [],
      "stateMutability": "nonpayable",
      "type": "function"
    },
    {
      "inputs": [
        {
          "internalType": "uint256",
          "name": "_upc",
          "type": "uint256"
        }
      ],
      "name": "receiveItem",
      "outputs": [],
      "stateMutability": "nonpayable",
      "type": "function"
    },
    {
      "inputs": [
        {
          "internalType": "uint256",
          "name": "_upc",
          "type": "uint256"
        }
      ],
      "name": "purchaseItem",
      "outputs": [],
      "stateMutability": "payable",
      "type": "function",
      "payable": true
    },
    {
      "inputs": [
        {
          "internalType": "uint256",
          "name": "_upc",
          "type": "uint256"
        }
      ],
      "name": "fetchItemBufferOne",
      "outputs": [
        {
          "internalType": "uint256",
          "name": "itemSKU",
          "type": "uint256"
        },
        {
          "internalType": "uint256",
          "name": "itemUPC",
          "type": "uint256"
        },
        {
          "internalType": "address",
          "name": "ownerID",
          "type": "address"
        },
        {
          "internalType": "address",
          "name": "originFarmerID",
          "type": "address"
        },
        {
          "internalType": "string",
          "name": "originFarmName",
          "type": "string"
        },
        {
          "internalType": "string",
          "name": "originFarmInformation",
          "type": "string"
        },
        {
          "internalType": "string",
          "name": "originFarmLatitude",
          "type": "string"
        },
        {
          "internalType": "string",
          "name": "originFarmLongitude",
          "type": "string"
        }
      ],
      "stateMutability": "view",
      "type": "function",
      "constant": true
    },
    {
      "inputs": [
        {
          "internalType": "uint256",
          "name": "_upc",
          "type": "uint256"
        }
      ],
      "name": "fetchItemBufferTwo",
      "outputs": [
        {
          "internalType": "uint256",
          "name": "itemSKU",
          "type": "uint256"
        },
        {
          "internalType": "uint256",
          "name": "itemUPC",
          "type": "uint256"
        },
        {
          "internalType": "uint256",
          "name": "productID",
          "type": "uint256"
        },
        {
          "internalType": "string",
          "name": "productNotes",
          "type": "string"
        },
        {
          "internalType": "uint256",
          "name": "productPrice",
          "type": "uint256"
        },
        {
          "internalType": "uint256",
          "name": "itemState",
          "type": "uint256"
        },
        {
          "internalType": "address",
          "name": "distributorID",
          "type": "address"
        },
        {
          "internalType": "address",
          "name": "retailerID",
          "type": "address"
        },
        {
          "internalType": "address",
          "name": "consumerID",
          "type": "address"
        }
      ],
      "stateMutability": "view",
      "type": "function",
      "constant": true
    }
  ],
  "bytecode": "0x608060405260016000800160003373ffffffffffffffffffffffffffffffffffffffff1673ffffffffffffffffffffffffffffffffffffffff16815260200190815260200160002060006101000a81548160ff02191690831515021790555060018060000160003373ffffffffffffffffffffffffffffffffffffffff1673ffffffffffffffffffffffffffffffffffffffff16815260200190815260200160002060006101000a81548160ff021916908315150217905550620000c9336200021d60201b60201c565b6001600360000160003373ffffffffffffffffffffffffffffffffffffffff1673ffffffffffffffffffffffffffffffffffffffff16815260200190815260200160002060006101000a81548160ff02191690831515021790555033600460006101000a81548173ffffffffffffffffffffffffffffffffffffffff021916908373ffffffffffffffffffffffffffffffffffffffff160217905550600460009054906101000a900473ffffffffffffffffffffffffffffffffffffffff1673ffffffffffffffffffffffffffffffffffffffff16600073ffffffffffffffffffffffffffffffffffffffff167f5c486528ec3e3f0ea91181cff8116f02bfa350e03b8b6f12e00765adbb5af85c60405160405180910390a3600160068190555060016005819055506000600960006101000a81548160ff021916908360018111156200021257fe5b021790555062000384565b620002388160026200023b60201b620043051790919060201c565b50565b600073ffffffffffffffffffffffffffffffffffffffff168173ffffffffffffffffffffffffffffffffffffffff1614156200027657600080fd5b620002888282620002f160201b60201c565b156200029357600080fd5b60018260000160008373ffffffffffffffffffffffffffffffffffffffff1673ffffffffffffffffffffffffffffffffffffffff16815260200190815260200160002060006101000a81548160ff0219169083151502179055505050565b60008073ffffffffffffffffffffffffffffffffffffffff168273ffffffffffffffffffffffffffffffffffffffff1614156200032d57600080fd5b8260000160008373ffffffffffffffffffffffffffffffffffffffff1673ffffffffffffffffffffffffffffffffffffffff16815260200190815260200160002060009054906101000a900460ff16905092915050565b61496980620003946000396000f3fe6080604052600436106101e35760003560e01c8063834ff73911610102578063bdd8a6a811610095578063f2fde38b11610064578063f2fde38b14610f4a578063f30fc48014610f9b578063f487d48d14610fd6578063f61c899a14611027576101e3565b8063bdd8a6a814610b6a578063d38ea5bf14610eb8578063e7fb74c714610ee6578063f2daf6be14610f14576101e3565b80638f32d59b116100d15780638f32d59b14610a4a578063a26be99914610a77578063b942906914610ab2578063bbb67db914610b19576101e3565b8063834ff739146108ea5780638da5cb5b146109515780638ec4f505146109925780638f0c86fa146109e3576101e3565b80634d04321a1161017a5780637250e224116101495780637250e224146105d257806377c45913146106235780637f4e48491461086357806380c3f96d14610899576101e3565b80634d04321a146103d55780635da09b881461042657806366225ff91461048d578063715018a6146105bb576101e3565b806341c0e1b5116101b657806341c0e1b5146102fc578063439766ce1461031357806345bdac101461034057806349dae7661461039a576101e3565b80630ca71432146101e8578063112940f9146102395780632d9235611461028a57806330a52d5b146102cf575b600080fd5b3480156101f457600080fd5b506102376004803603602081101561020b57600080fd5b81019080803573ffffffffffffffffffffffffffffffffffffffff169060200190929190505050611062565b005b34801561024557600080fd5b506102886004803603602081101561025c57600080fd5b81019080803573ffffffffffffffffffffffffffffffffffffffff1690602001909291905050506111b1565b005b34801561029657600080fd5b506102cd600480360360408110156102ad57600080fd5b8101908080359060200190929190803590602001909291905050506112e4565b005b3480156102db57600080fd5b506102e46115be565b60405180821515815260200191505060405180910390f35b34801561030857600080fd5b50610311611733565b005b34801561031f57600080fd5b50610328611769565b60405180821515815260200191505060405180910390f35b34801561034c57600080fd5b506103796004803603602081101561036357600080fd5b81019080803590602001909291905050506118dc565b6040518082600881111561038957fe5b815260200191505060405180910390f35b3480156103a657600080fd5b506103d3600480360360208110156103bd57600080fd5b810190808035906020019092919050505061190e565b005b3480156103e157600080fd5b50610424600480360360208110156103f857600080fd5b81019080803573ffffffffffffffffffffffffffffffffffffffff169060200190929190505050611bd1565b005b34801561043257600080fd5b506104756004803603602081101561044957600080fd5b81019080803573ffffffffffffffffffffffffffffffffffffffff169060200190929190505050611cad565b60405180821515815260200191505060405180910390f35b34801561049957600080fd5b506104c6600480360360208110156104b057600080fd5b8101908080359060200190929190505050611cc1565b604051808a8152602001898152602001888152602001806020018781526020018681526020018573ffffffffffffffffffffffffffffffffffffffff1681526020018473ffffffffffffffffffffffffffffffffffffffff1681526020018373ffffffffffffffffffffffffffffffffffffffff168152602001828103825288818151815260200191508051906020019080838360005b8381101561057857808201518184015260208101905061055d565b50505050905090810190601f1680156105a55780820380516001836020036101000a031916815260200191505b509a505050505050505050505060405180910390f35b3480156105c757600080fd5b506105d0612302565b005b3480156105de57600080fd5b50610621600480360360208110156105f557600080fd5b81019080803573ffffffffffffffffffffffffffffffffffffffff1690602001909291905050506123d4565b005b34801561062f57600080fd5b5061065c6004803603602081101561064657600080fd5b81019080803590602001909291905050506124ea565b604051808981526020018881526020018773ffffffffffffffffffffffffffffffffffffffff1681526020018673ffffffffffffffffffffffffffffffffffffffff16815260200180602001806020018060200180602001858103855289818151815260200191508051906020019080838360005b838110156106ec5780820151818401526020810190506106d1565b50505050905090810190601f1680156107195780820380516001836020036101000a031916815260200191505b50858103845288818151815260200191508051906020019080838360005b83811015610752578082015181840152602081019050610737565b50505050905090810190601f16801561077f5780820380516001836020036101000a031916815260200191505b50858103835287818151815260200191508051906020019080838360005b838110156107b857808201518184015260208101905061079d565b50505050905090810190601f1680156107e55780820380516001836020036101000a031916815260200191505b50858103825286818151815260200191508051906020019080838360005b8381101561081e578082015181840152602081019050610803565b50505050905090810190601f16801561084b5780820380516001836020036101000a031916815260200191505b509c5050505050505050505050505060405180910390f35b34801561086f57600080fd5b50610878612b0e565b6040518082600181111561088857fe5b815260200191505060405180910390f35b3480156108a557600080fd5b506108e8600480360360208110156108bc57600080fd5b81019080803573ffffffffffffffffffffffffffffffffffffffff169060200190929190505050612b25565b005b3480156108f657600080fd5b506109396004803603602081101561090d57600080fd5b81019080803573ffffffffffffffffffffffffffffffffffffffff169060200190929190505050612c02565b60405180821515815260200191505060405180910390f35b34801561095d57600080fd5b50610966612cd7565b604051808273ffffffffffffffffffffffffffffffffffffffff16815260200191505060405180910390f35b34801561099e57600080fd5b506109e1600480360360208110156109b557600080fd5b81019080803573ffffffffffffffffffffffffffffffffffffffff169060200190929190505050612d01565b005b3480156109ef57600080fd5b50610a3260048036036020811015610a0657600080fd5b81019080803573ffffffffffffffffffffffffffffffffffffffff169060200190929190505050612e34565b60405180821515815260200191505060405180910390f35b348015610a5657600080fd5b50610a5f612f0a565b60405180821515815260200191505060405180910390f35b348015610a8357600080fd5b50610ab060048036036020811015610a9a57600080fd5b8101908080359060200190929190505050612f62565b005b348015610abe57600080fd5b50610b0160048036036020811015610ad557600080fd5b81019080803573ffffffffffffffffffffffffffffffffffffffff1690602001909291905050506131ed565b60405180821515815260200191505060405180910390f35b348015610b2557600080fd5b50610b6860048036036020811015610b3c57600080fd5b81019080803573ffffffffffffffffffffffffffffffffffffffff16906020019092919050505061320a565b005b348015610b7657600080fd5b50610eb6600480360360e0811015610b8d57600080fd5b8101908080359060200190929190803573ffffffffffffffffffffffffffffffffffffffff16906020019092919080359060200190640100000000811115610bd457600080fd5b820183602082011115610be657600080fd5b80359060200191846001830284011164010000000083111715610c0857600080fd5b91908080601f016020809104026020016040519081016040528093929190818152602001838380828437600081840152601f19601f82011690508083019250505050505050919291929080359060200190640100000000811115610c6b57600080fd5b820183602082011115610c7d57600080fd5b80359060200191846001830284011164010000000083111715610c9f57600080fd5b91908080601f016020809104026020016040519081016040528093929190818152602001838380828437600081840152601f19601f82011690508083019250505050505050919291929080359060200190640100000000811115610d0257600080fd5b820183602082011115610d1457600080fd5b80359060200191846001830284011164010000000083111715610d3657600080fd5b91908080601f016020809104026020016040519081016040528093929190818152602001838380828437600081840152601f19601f82011690508083019250505050505050919291929080359060200190640100000000811115610d9957600080fd5b820183602082011115610dab57600080fd5b80359060200191846001830284011164010000000083111715610dcd57600080fd5b91908080601f016020809104026020016040519081016040528093929190818152602001838380828437600081840152601f19601f82011690508083019250505050505050919291929080359060200190640100000000811115610e3057600080fd5b820183602082011115610e4257600080fd5b80359060200191846001830284011164010000000083111715610e6457600080fd5b91908080601f016020809104026020016040519081016040528093929190818152602001838380828437600081840152601f19601f82011690508083019250505050505050919291929050505061331f565b005b610ee460048036036020811015610ece57600080fd5b810190808035906020019092919050505061358e565b005b610f1260048036036020811015610efc57600080fd5b81019080803590602001909291905050506138df565b005b348015610f2057600080fd5b50610f29613c56565b60405180826001811115610f3957fe5b815260200191505060405180910390f35b348015610f5657600080fd5b50610f9960048036036020811015610f6d57600080fd5b81019080803573ffffffffffffffffffffffffffffffffffffffff169060200190929190505050613c69565b005b348015610fa757600080fd5b50610fd460048036036020811015610fbe57600080fd5b8101908080359060200190929190505050613c86565b005b348015610fe257600080fd5b5061102560048036036020811015610ff957600080fd5b81019080803573ffffffffffffffffffffffffffffffffffffffff169060200190929190505050613fb1565b005b34801561103357600080fd5b506110606004803603602081101561104a57600080fd5b8101908080359060200190929190505050614100565b005b61106b33611cad565b6110dd576040517f08c379a00000000000000000000000000000000000000000000000000000000081526004018080602001828103825260188152602001807f43616c6c6572206973206e6f7420612052657461696c6572000000000000000081525060200191505060405180910390fd5b6110e681611cad565b611158576040517f08c379a000000000000000000000000000000000000000000000000000000000815260040180806020018281038252601e8152602001807f54686973206163636f756e74206973206e6f7420612052657461696c6572000081525060200191505060405180910390fd5b611161816143b1565b7fdb7176e79cffef81cb01767dd0447a0b24bb72ca9778d4b245581086b2a7e6db81604051808273ffffffffffffffffffffffffffffffffffffffff16815260200191505060405180910390a150565b6111ba33612c02565b61122c576040517f08c379a00000000000000000000000000000000000000000000000000000000081526004018080602001828103825260188152602001807f43616c6c6572206973206e6f74206120436f6e73756d6572000000000000000081525060200191505060405180910390fd5b61123581612c02565b1561128b576040517f08c379a00000000000000000000000000000000000000000000000000000000081526004018080602001828103825260228152602001806148216022913960400191505060405180910390fd5b611294816143bf565b7f28b26e7a3d20aedbc5f8f2ebf7da671c0491723a2b78f47a097b0e46dee0714281604051808273ffffffffffffffffffffffffffffffffffffffff16815260200191505060405180910390a150565b600060018111156112f157fe5b600960009054906101000a900460ff16600181111561130c57fe5b14611362576040517f08c379a00000000000000000000000000000000000000000000000000000000081526004018080602001828103825260318152602001806147cb6031913960400191505060405180910390fd5b816003600881111561137057fe5b60076000838152602001908152602001600020600b0160009054906101000a900460ff16600881111561139f57fe5b14611412576040517f08c379a000000000000000000000000000000000000000000000000000000000815260040180806020018281038252601a8152602001807f4974656d2773206e6f74206265656e207061636b65642079657400000000000081525060200191505060405180910390fd5b816000811161146c576040517f08c379a00000000000000000000000000000000000000000000000000000000081526004018080602001828103825260218152602001806147aa6021913960400191505060405180910390fd5b611475336131ed565b61147e57600080fd5b833373ffffffffffffffffffffffffffffffffffffffff166007600083815260200190815260200160002060030160009054906101000a900473ffffffffffffffffffffffffffffffffffffffff1673ffffffffffffffffffffffffffffffffffffffff1614611539576040517f08c379a00000000000000000000000000000000000000000000000000000000081526004018080602001828103825260338152602001806149016033913960400191505060405180910390fd5b60006007600087815260200190815260200160002090508481600a0181905550600481600b0160006101000a81548160ff0219169083600881111561157a57fe5b02179055507fa96ae0fc3224ebd79eebfe54bd130cc9cb94416cddd1f2386115e00b72532468866040518082815260200191505060405180910390a1505050505050565b60006115c8612f0a565b6115d157600080fd5b600060018111156115de57fe5b600960009054906101000a900460ff1660018111156115f957fe5b141561166d576040517f08c379a00000000000000000000000000000000000000000000000000000000081526004018080602001828103825260168152602001807f436f6e747261637420697320616c7265616479206f6e0000000000000000000081525060200191505060405180910390fd5b6000600960006101000a81548160ff0219169083600181111561168c57fe5b02179055506000600181111561169e57fe5b600960009054906101000a900460ff1660018111156116b957fe5b1461172c576040517f08c379a000000000000000000000000000000000000000000000000000000000815260040180806020018281038252601e8152602001807f4661696c656420746f20726573746172742074686520636f6e7472616374000081525060200191505060405180910390fd5b6001905090565b61173b612f0a565b61174457600080fd5b600061174e612cd7565b90508073ffffffffffffffffffffffffffffffffffffffff16ff5b6000611773612f0a565b61177c57600080fd5b60018081111561178857fe5b600960009054906101000a900460ff1660018111156117a357fe5b1415611817576040517f08c379a000000000000000000000000000000000000000000000000000000000815260040180806020018281038252601a8152602001807f436f6e747261637420697320616c72656164792070617573656400000000000081525060200191505060405180910390fd5b6001600960006101000a81548160ff0219169083600181111561183657fe5b021790555060018081111561184757fe5b600960009054906101000a900460ff16600181111561186257fe5b146118d5576040517f08c379a000000000000000000000000000000000000000000000000000000000815260040180806020018281038252601c8152602001807f4661696c656420746f2070617573652074686520636f6e74726163740000000081525060200191505060405180910390fd5b6001905090565b60008060076000848152602001908152602001600020905080600b0160009054906101000a900460ff16915050919050565b6000600181111561191b57fe5b600960009054906101000a900460ff16600181111561193657fe5b1461198c576040517f08c379a00000000000000000000000000000000000000000000000000000000081526004018080602001828103825260318152602001806147cb6031913960400191505060405180910390fd5b806001600881111561199a57fe5b60076000838152602001908152602001600020600b0160009054906101000a900460ff1660088111156119c957fe5b14611a3c576040517f08c379a000000000000000000000000000000000000000000000000000000000815260040180806020018281038252601f8152602001807f4974656d20686173206e6f74206265656e20686172766573746564207965740081525060200191505060405180910390fd5b611a45336131ed565b611a4e57600080fd5b813373ffffffffffffffffffffffffffffffffffffffff166007600083815260200190815260200160002060030160009054906101000a900473ffffffffffffffffffffffffffffffffffffffff1673ffffffffffffffffffffffffffffffffffffffff1614611b09576040517f08c379a00000000000000000000000000000000000000000000000000000000081526004018080602001828103825260338152602001806149016033913960400191505060405180910390fd5b6000600760008581526020019081526020016000209050600281600b0160006101000a81548160ff02191690836008811115611b4157fe5b02179055506040518060400160405280602081526020017f436f66666565206265616e732068617665206265656e2070726f636573736564815250816009019080519060200190611b9392919061461d565b507f5afe3b1bf87069693c075da5c22a98d63d1aef98a30dbbe538d0781a98b77ee5846040518082815260200191505060405180910390a150505050565b611bda336131ed565b611be357600080fd5b611bec816131ed565b611c5e576040517f08c379a000000000000000000000000000000000000000000000000000000000815260040180806020018281038252601c8152602001807f54686973206163636f756e74206973206e6f742061204661726d65720000000081525060200191505060405180910390fd5b611c67336143cd565b8073ffffffffffffffffffffffffffffffffffffffff167fa5e0f060af304ab17dd418c7927e3da3ae7868189bf387aee09ab179ccc572f260405160405180910390a250565b6000611cba6003836143e4565b9050919050565b600080600060606000806000806000806001811115611cdc57fe5b600960009054906101000a900460ff166001811115611cf757fe5b14611d4d576040517f08c379a00000000000000000000000000000000000000000000000000000000081526004018080602001828103825260318152602001806147cb6031913960400191505060405180910390fd5b611d5561469d565b600760008c8152602001908152602001600020604051806101e001604052908160008201548152602001600182015481526020016002820160009054906101000a900473ffffffffffffffffffffffffffffffffffffffff1673ffffffffffffffffffffffffffffffffffffffff1673ffffffffffffffffffffffffffffffffffffffff1681526020016003820160009054906101000a900473ffffffffffffffffffffffffffffffffffffffff1673ffffffffffffffffffffffffffffffffffffffff1673ffffffffffffffffffffffffffffffffffffffff168152602001600482018054600181600116156101000203166002900480601f016020809104026020016040519081016040528092919081815260200182805460018160011615610100020316600290048015611ecd5780601f10611ea257610100808354040283529160200191611ecd565b820191906000526020600020905b815481529060010190602001808311611eb057829003601f168201915b50505050508152602001600582018054600181600116156101000203166002900480601f016020809104026020016040519081016040528092919081815260200182805460018160011615610100020316600290048015611f6f5780601f10611f4457610100808354040283529160200191611f6f565b820191906000526020600020905b815481529060010190602001808311611f5257829003601f168201915b50505050508152602001600682018054600181600116156101000203166002900480601f0160208091040260200160405190810160405280929190818152602001828054600181600116156101000203166002900480156120115780601f10611fe657610100808354040283529160200191612011565b820191906000526020600020905b815481529060010190602001808311611ff457829003601f168201915b50505050508152602001600782018054600181600116156101000203166002900480601f0160208091040260200160405190810160405280929190818152602001828054600181600116156101000203166002900480156120b35780601f10612088576101008083540402835291602001916120b3565b820191906000526020600020905b81548152906001019060200180831161209657829003601f168201915b5050505050815260200160088201548152602001600982018054600181600116156101000203166002900480601f01602080910402602001604051908101604052809291908181526020018280546001816001161561010002031660029004801561215f5780601f106121345761010080835404028352916020019161215f565b820191906000526020600020905b81548152906001019060200180831161214257829003601f168201915b50505050508152602001600a8201548152602001600b820160009054906101000a900460ff16600881111561219057fe5b600881111561219b57fe5b8152602001600b820160019054906101000a900473ffffffffffffffffffffffffffffffffffffffff1673ffffffffffffffffffffffffffffffffffffffff1673ffffffffffffffffffffffffffffffffffffffff168152602001600c820160009054906101000a900473ffffffffffffffffffffffffffffffffffffffff1673ffffffffffffffffffffffffffffffffffffffff1673ffffffffffffffffffffffffffffffffffffffff168152602001600d820160009054906101000a900473ffffffffffffffffffffffffffffffffffffffff1673ffffffffffffffffffffffffffffffffffffffff1673ffffffffffffffffffffffffffffffffffffffff168152505090508060000151816020015182610100015183610120015184610140015185610160015160088111156122d057fe5b866101800151876101a00151886101c00151995099509950995099509950995099509950509193959799909294969850565b61230a612f0a565b61231357600080fd5b600073ffffffffffffffffffffffffffffffffffffffff16600460009054906101000a900473ffffffffffffffffffffffffffffffffffffffff1673ffffffffffffffffffffffffffffffffffffffff167f5c486528ec3e3f0ea91181cff8116f02bfa350e03b8b6f12e00765adbb5af85c60405160405180910390a36000600460006101000a81548173ffffffffffffffffffffffffffffffffffffffff021916908373ffffffffffffffffffffffffffffffffffffffff160217905550565b6123dd33612e34565b612432576040517f08c379a00000000000000000000000000000000000000000000000000000000081526004018080602001828103825260238152602001806148bd6023913960400191505060405180910390fd5b61243b81612e34565b15612491576040517f08c379a00000000000000000000000000000000000000000000000000000000081526004018080602001828103825260258152602001806147fc6025913960400191505060405180910390fd5b61249a81614476565b7fddbf200aa634dc3fb81cfd68583dd1040d1c751d335e1d86b631bde3e977fea881604051808273ffffffffffffffffffffffffffffffffffffffff16815260200191505060405180910390a150565b6000806000806060806060806000600181111561250357fe5b600960009054906101000a900460ff16600181111561251e57fe5b14612574576040517f08c379a00000000000000000000000000000000000000000000000000000000081526004018080602001828103825260318152602001806147cb6031913960400191505060405180910390fd5b61257c61469d565b600760008b8152602001908152602001600020604051806101e001604052908160008201548152602001600182015481526020016002820160009054906101000a900473ffffffffffffffffffffffffffffffffffffffff1673ffffffffffffffffffffffffffffffffffffffff1673ffffffffffffffffffffffffffffffffffffffff1681526020016003820160009054906101000a900473ffffffffffffffffffffffffffffffffffffffff1673ffffffffffffffffffffffffffffffffffffffff1673ffffffffffffffffffffffffffffffffffffffff168152602001600482018054600181600116156101000203166002900480601f0160208091040260200160405190810160405280929190818152602001828054600181600116156101000203166002900480156126f45780601f106126c9576101008083540402835291602001916126f4565b820191906000526020600020905b8154815290600101906020018083116126d757829003601f168201915b50505050508152602001600582018054600181600116156101000203166002900480601f0160208091040260200160405190810160405280929190818152602001828054600181600116156101000203166002900480156127965780601f1061276b57610100808354040283529160200191612796565b820191906000526020600020905b81548152906001019060200180831161277957829003601f168201915b50505050508152602001600682018054600181600116156101000203166002900480601f0160208091040260200160405190810160405280929190818152602001828054600181600116156101000203166002900480156128385780601f1061280d57610100808354040283529160200191612838565b820191906000526020600020905b81548152906001019060200180831161281b57829003601f168201915b50505050508152602001600782018054600181600116156101000203166002900480601f0160208091040260200160405190810160405280929190818152602001828054600181600116156101000203166002900480156128da5780601f106128af576101008083540402835291602001916128da565b820191906000526020600020905b8154815290600101906020018083116128bd57829003601f168201915b5050505050815260200160088201548152602001600982018054600181600116156101000203166002900480601f0160208091040260200160405190810160405280929190818152602001828054600181600116156101000203166002900480156129865780601f1061295b57610100808354040283529160200191612986565b820191906000526020600020905b81548152906001019060200180831161296957829003601f168201915b50505050508152602001600a8201548152602001600b820160009054906101000a900460ff1660088111156129b757fe5b60088111156129c257fe5b8152602001600b820160019054906101000a900473ffffffffffffffffffffffffffffffffffffffff1673ffffffffffffffffffffffffffffffffffffffff1673ffffffffffffffffffffffffffffffffffffffff168152602001600c820160009054906101000a900473ffffffffffffffffffffffffffffffffffffffff1673ffffffffffffffffffffffffffffffffffffffff1673ffffffffffffffffffffffffffffffffffffffff168152602001600d820160009054906101000a900473ffffffffffffffffffffffffffffffffffffffff1673ffffffffffffffffffffffffffffffffffffffff1673ffffffffffffffffffffffffffffffffffffffff16815250509050806000015181602001518260400151836060015184608001518560a001518660c001518760e001519850985098509850985098509850985050919395975091939597565b6000600960009054906101000a900460ff16905090565b612b2e336131ed565b612b3757600080fd5b612b40816131ed565b15612bb3576040517f08c379a00000000000000000000000000000000000000000000000000000000081526004018080602001828103825260208152602001807f54686973206163636f756e7420697320616c72656164792061204661726d657281525060200191505060405180910390fd5b612bbc81614484565b8073ffffffffffffffffffffffffffffffffffffffff167f2e0ded4123377a3c2bc9a26f1717655a129e2f20752924d42e730ec89c83dbd060405160405180910390a250565b6000612c0f6000336143e4565b612c81576040517f08c379a00000000000000000000000000000000000000000000000000000000081526004018080602001828103825260188152602001807f43616c6c6572206973206e6f74206120436f6e73756d6572000000000000000081525060200191505060405180910390fd5b6000800160008373ffffffffffffffffffffffffffffffffffffffff1673ffffffffffffffffffffffffffffffffffffffff16815260200190815260200160002060009054906101000a900460ff169050919050565b6000600460009054906101000a900473ffffffffffffffffffffffffffffffffffffffff16905090565b612d0a33611cad565b612d7c576040517f08c379a00000000000000000000000000000000000000000000000000000000081526004018080602001828103825260188152602001807f43616c6c6572206973206e6f7420612052657461696c6572000000000000000081525060200191505060405180910390fd5b612d8581611cad565b15612ddb576040517f08c379a00000000000000000000000000000000000000000000000000000000081526004018080602001828103825260228152602001806148646022913960400191505060405180910390fd5b612de48161449b565b7f71ae26cad02663e3d92efd6ec56031a80d74a20c0ab4183faa8bf262261c9baa81604051808273ffffffffffffffffffffffffffffffffffffffff16815260200191505060405180910390a150565b6000612e416001336143e4565b612eb3576040517f08c379a000000000000000000000000000000000000000000000000000000000815260040180806020018281038252601b8152602001807f43616c6c6572206973206e6f742061204469737472696275746f72000000000081525060200191505060405180910390fd5b600160000160008373ffffffffffffffffffffffffffffffffffffffff1673ffffffffffffffffffffffffffffffffffffffff16815260200190815260200160002060009054906101000a900460ff169050919050565b6000600460009054906101000a900473ffffffffffffffffffffffffffffffffffffffff1673ffffffffffffffffffffffffffffffffffffffff163373ffffffffffffffffffffffffffffffffffffffff1614905090565b60006001811115612f6f57fe5b600960009054906101000a900460ff166001811115612f8a57fe5b14612fe0576040517f08c379a00000000000000000000000000000000000000000000000000000000081526004018080602001828103825260318152602001806147cb6031913960400191505060405180910390fd5b8060066008811115612fee57fe5b60076000838152602001908152602001600020600b0160009054906101000a900460ff16600881111561301d57fe5b14613073576040517f08c379a00000000000000000000000000000000000000000000000000000000081526004018080602001828103825260218152602001806148436021913960400191505060405180910390fd5b61307c33611cad565b6130ee576040517f08c379a00000000000000000000000000000000000000000000000000000000081526004018080602001828103825260188152602001807f43616c6c6572206973206e6f7420612052657461696c6572000000000000000081525060200191505060405180910390fd5b6000600760008481526020019081526020016000209050338160020160006101000a81548173ffffffffffffffffffffffffffffffffffffffff021916908373ffffffffffffffffffffffffffffffffffffffff1602179055503381600c0160006101000a81548173ffffffffffffffffffffffffffffffffffffffff021916908373ffffffffffffffffffffffffffffffffffffffff160217905550600781600b0160006101000a81548160ff021916908360088111156131ac57fe5b02179055507fa8142743f8f70a4c26f3691cf4ed59718381fb2f18070ec52be1f1022d855557836040518082815260200191505060405180910390a1505050565b60006132038260026143e490919063ffffffff16565b9050919050565b61321333612e34565b613268576040517f08c379a00000000000000000000000000000000000000000000000000000000081526004018080602001828103825260238152602001806148bd6023913960400191505060405180910390fd5b61327181612e34565b6132c6576040517f08c379a00000000000000000000000000000000000000000000000000000000081526004018080602001828103825260218152602001806148e06021913960400191505060405180910390fd5b6132cf816144a9565b7f126174f6cf49c81cdb4a9214c6b8f037bef55b4ec31e4fc776cea2a1c8a88d5981604051808273ffffffffffffffffffffffffffffffffffffffff16815260200191505060405180910390a150565b6000600181111561332c57fe5b600960009054906101000a900460ff16600181111561334757fe5b1461339d576040517f08c379a00000000000000000000000000000000000000000000000000000000081526004018080602001828103825260318152602001806147cb6031913960400191505060405180910390fd5b6133a6336131ed565b6133af57600080fd5b600060076000898152602001908152602001600020905060016005541480156133da57506001600654145b156133ee57600181600101819055506133fe565b6005546006540181600101819055505b6006548160000181905550338160020160006101000a81548173ffffffffffffffffffffffffffffffffffffffff021916908373ffffffffffffffffffffffffffffffffffffffff160217905550868160030160006101000a81548173ffffffffffffffffffffffffffffffffffffffff021916908373ffffffffffffffffffffffffffffffffffffffff160217905550858160040190805190602001906134a792919061461d565b50848160050190805190602001906134c092919061461d565b50838160060190805190602001906134d992919061461d565b50828160070190805190602001906134f292919061461d565b506005546006540181600801819055508181600901908051906020019061351a92919061461d565b50600181600b0160006101000a81548160ff0219169083600881111561353c57fe5b02179055506001600654016006819055507f8e55ccfc9778ff8eba1646d765cf1982537ce0f9257054a17b48aad745250183886040518082815260200191505060405180910390a15050505050505050565b6000600181111561359b57fe5b600960009054906101000a900460ff1660018111156135b657fe5b1461360c576040517f08c379a00000000000000000000000000000000000000000000000000000000081526004018080602001828103825260318152602001806147cb6031913960400191505060405180910390fd5b61361533612c02565b613687576040517f08c379a00000000000000000000000000000000000000000000000000000000081526004018080602001828103825260188152602001807f43616c6c6572206973206e6f74206120436f6e73756d6572000000000000000081525060200191505060405180910390fd5b806007600881111561369557fe5b60076000838152602001908152602001600020600b0160009054906101000a900460ff1660088111156136c457fe5b14613737576040517f08c379a000000000000000000000000000000000000000000000000000000000815260040180806020018281038252601c8152602001807f4974656d2773206e6f74206265656e207265636569766564207965740000000081525060200191505060405180910390fd5b816000600760008581526020019081526020016000209050338160020160006101000a81548173ffffffffffffffffffffffffffffffffffffffff021916908373ffffffffffffffffffffffffffffffffffffffff160217905550600881600b0160006101000a81548160ff021916908360088111156137b357fe5b02179055503381600d0160006101000a81548173ffffffffffffffffffffffffffffffffffffffff021916908373ffffffffffffffffffffffffffffffffffffffff1602179055507f653d56639fee6b566a5c804764e9689de38645f0b733df89a36a1b7b42173dd8846040518082815260200191505060405180910390a150600060076000838152602001908152602001600020600a0154905060008134039050600060076000858152602001908152602001600020600d0160009054906101000a900473ffffffffffffffffffffffffffffffffffffffff1690508073ffffffffffffffffffffffffffffffffffffffff166108fc839081150290604051600060405180830381858888f193505050501580156138d6573d6000803e3d6000fd5b50505050505050565b600060018111156138ec57fe5b600960009054906101000a900460ff16600181111561390757fe5b1461395d576040517f08c379a00000000000000000000000000000000000000000000000000000000081526004018080602001828103825260318152602001806147cb6031913960400191505060405180910390fd5b806004600881111561396b57fe5b60076000838152602001908152602001600020600b0160009054906101000a900460ff16600881111561399a57fe5b14613a0d576040517f08c379a000000000000000000000000000000000000000000000000000000000815260040180806020018281038252601d8152602001807f54686973204974656d206973206e6f742079657420666f722073616c6500000081525060200191505060405180910390fd5b81600060076000838152602001908152602001600020600a0154905080341015613a82576040517f08c379a00000000000000000000000000000000000000000000000000000000081526004018080602001828103825260378152602001806148866037913960400191505060405180910390fd5b613a8b33612e34565b613ae0576040517f08c379a00000000000000000000000000000000000000000000000000000000081526004018080602001828103825260238152602001806148bd6023913960400191505060405180910390fd5b60006007600086815260200190815260200160002090503381600b0160016101000a81548173ffffffffffffffffffffffffffffffffffffffff021916908373ffffffffffffffffffffffffffffffffffffffff160217905550338160020160006101000a81548173ffffffffffffffffffffffffffffffffffffffff021916908373ffffffffffffffffffffffffffffffffffffffff160217905550600581600b0160006101000a81548160ff02191690836008811115613b9e57fe5b021790555060008160020160009054906101000a900473ffffffffffffffffffffffffffffffffffffffff1690508073ffffffffffffffffffffffffffffffffffffffff166108fc83600a01549081150290604051600060405180830381858888f19350505050158015613c16573d6000803e3d6000fd5b507f92f64ca637d023f354075a4be751b169c1a8a9ccb6d33cdd0cb3520543995727866040518082815260200191505060405180910390a1505050505050565b600960009054906101000a900460ff1681565b613c71612f0a565b613c7a57600080fd5b613c83816144b7565b50565b60006001811115613c9357fe5b600960009054906101000a900460ff166001811115613cae57fe5b14613d04576040517f08c379a00000000000000000000000000000000000000000000000000000000081526004018080602001828103825260318152602001806147cb6031913960400191505060405180910390fd5b8060026008811115613d1257fe5b60076000838152602001908152602001600020600b0160009054906101000a900460ff166008811115613d4157fe5b14613db4576040517f08c379a000000000000000000000000000000000000000000000000000000000815260040180806020018281038252601d8152602001807f4974656d2773206e6f74206265656e2070726f6365737365642079657400000081525060200191505060405180910390fd5b613dbd336131ed565b613dc657600080fd5b813373ffffffffffffffffffffffffffffffffffffffff166007600083815260200190815260200160002060030160009054906101000a900473ffffffffffffffffffffffffffffffffffffffff1673ffffffffffffffffffffffffffffffffffffffff1614613e81576040517f08c379a00000000000000000000000000000000000000000000000000000000081526004018080602001828103825260338152602001806149016033913960400191505060405180910390fd5b6000600760008581526020019081526020016000209050600381600b0160006101000a81548160ff02191690836008811115613eb957fe5b0217905550806009016040516020018082805460018160011615610100020316600290048015613f205780601f10613efe576101008083540402835291820191613f20565b820191906000526020600020905b815481529060010190602001808311613f0c575b5050807f0a205061636b6564206f6e204d61792031307468203230323100000000000000815250601901915050604051602081830303815290604052816009019080519060200190613f7392919061461d565b507f9b3b66e2380b690bae22c73ef1428fb0c91e72fe14a4b6defa13035214187aff846040518082815260200191505060405180910390a150505050565b613fba33612c02565b61402c576040517f08c379a00000000000000000000000000000000000000000000000000000000081526004018080602001828103825260188152602001807f43616c6c6572206973206e6f74206120436f6e73756d6572000000000000000081525060200191505060405180910390fd5b61403581612c02565b6140a7576040517f08c379a000000000000000000000000000000000000000000000000000000000815260040180806020018281038252601e8152602001807f54686973206163636f756e74206973206e6f74206120436f6e73756d6572000081525060200191505060405180910390fd5b6140b0816145b1565b7fe3f5ed5f263f1f01764a96edfc7d025f511ec5f7d180e8816908b78bcf74f09881604051808273ffffffffffffffffffffffffffffffffffffffff16815260200191505060405180910390a150565b6000600181111561410d57fe5b600960009054906101000a900460ff16600181111561412857fe5b1461417e576040517f08c379a00000000000000000000000000000000000000000000000000000000081526004018080602001828103825260318152602001806147cb6031913960400191505060405180910390fd5b806005600881111561418c57fe5b60076000838152602001908152602001600020600b0160009054906101000a900460ff1660088111156141bb57fe5b1461422e576040517f08c379a00000000000000000000000000000000000000000000000000000000081526004018080602001828103825260198152602001807f4974656d206861736e2774206265656e20736f6c64207965740000000000000081525060200191505060405180910390fd5b61423733612e34565b61428c576040517f08c379a00000000000000000000000000000000000000000000000000000000081526004018080602001828103825260238152602001806148bd6023913960400191505060405180910390fd5b6000600760008481526020019081526020016000209050600681600b0160006101000a81548160ff021916908360088111156142c457fe5b02179055507ff00b9a5725b80c54016f42114f6ed7792d22eecb116011c4afac29c57bef6c95836040518082815260200191505060405180910390a1505050565b600073ffffffffffffffffffffffffffffffffffffffff168173ffffffffffffffffffffffffffffffffffffffff16141561433f57600080fd5b61434982826143e4565b1561435357600080fd5b60018260000160008373ffffffffffffffffffffffffffffffffffffffff1673ffffffffffffffffffffffffffffffffffffffff16815260200190815260200160002060006101000a81548160ff0219169083151502179055505050565b6143bc6003826145bf565b50565b6143ca600082614305565b50565b6143e18160026145bf90919063ffffffff16565b50565b60008073ffffffffffffffffffffffffffffffffffffffff168273ffffffffffffffffffffffffffffffffffffffff16141561441f57600080fd5b8260000160008373ffffffffffffffffffffffffffffffffffffffff1673ffffffffffffffffffffffffffffffffffffffff16815260200190815260200160002060009054906101000a900460ff16905092915050565b614481600182614305565b50565b61449881600261430590919063ffffffff16565b50565b6144a6600382614305565b50565b6144b46001826145bf565b50565b600073ffffffffffffffffffffffffffffffffffffffff168173ffffffffffffffffffffffffffffffffffffffff1614156144f157600080fd5b8073ffffffffffffffffffffffffffffffffffffffff16600460009054906101000a900473ffffffffffffffffffffffffffffffffffffffff1673ffffffffffffffffffffffffffffffffffffffff167f5c486528ec3e3f0ea91181cff8116f02bfa350e03b8b6f12e00765adbb5af85c60405160405180910390a380600460006101000a81548173ffffffffffffffffffffffffffffffffffffffff021916908373ffffffffffffffffffffffffffffffffffffffff16021790555050565b6145bc6000826145bf565b50565b60008260000160008373ffffffffffffffffffffffffffffffffffffffff1673ffffffffffffffffffffffffffffffffffffffff16815260200190815260200160002060006101000a81548160ff0219169083151502179055505050565b828054600181600116156101000203166002900490600052602060002090601f016020900481019282601f1061465e57805160ff191683800117855561468c565b8280016001018555821561468c579182015b8281111561468b578251825591602001919060010190614670565b5b509050614699919061478c565b5090565b604051806101e001604052806000815260200160008152602001600073ffffffffffffffffffffffffffffffffffffffff168152602001600073ffffffffffffffffffffffffffffffffffffffff168152602001606081526020016060815260200160608152602001606081526020016000815260200160608152602001600081526020016000600881111561472f57fe5b8152602001600073ffffffffffffffffffffffffffffffffffffffff168152602001600073ffffffffffffffffffffffffffffffffffffffff168152602001600073ffffffffffffffffffffffffffffffffffffffff1681525090565b5b808211156147a557600081600090555060010161478d565b509056fe50726963652073686f756c642062652067726561746572207468616e207a65726f54686520636f6e747261637420686173206265656e2070617573656420666f7220736563757269747920726561736f6e7354686973206163636f756e7420697320616c72656164792061204469737472696275746f7254686973206163636f756e7420697320616c7265616479206120436f6e73756d657254686973206974656d206861736e2774206265656e20736869707065642079657454686973206163636f756e7420697320616c726561647920612052657461696c657254686973206974656d2069732070726963656420686967686572207468616e207768617420796f7527726520706179696e6720666f722e4d6573736167652053656e646572206973206e6f742061204469737472696275746f7254686973206163636f756e74206973206e6f742061204469737472696275746f724f6e6c7920746865206f726967696e206661726d65722063616e206368616e67652074686973206974656d2773207374617465a26469706673582212200c1870a97da7aec9e11f93b99b2acc268195e9ebcd11e8d176040a9e9bca782f64736f6c63430007010033",
  "immutableReferences": {},
  "source": "pragma solidity 0.7.1;\n// Define a contract 'Supplychain'\n import \"../coffeeaccesscontrol/DistributorRole.sol\";\n import \"../coffeeaccesscontrol/ConsumerRole.sol\";\n import \"../coffeeaccesscontrol/FarmerRole.sol\";\n import \"../coffeeaccesscontrol/RetailerRole.sol\";\n import \"../coffeecore/Ownable.sol\";\n\n// (0) 0x9e7180Fd3EE289cb405fE4103969f23Bd0C3095D (100 ETH)\n// (1) 0x9706125EAd18988De2660E650D034C4954059E5C (100 ETH)\n// (2) 0xa89Cfb54eB1F542343B6352552A82c201c705606 (100 ETH)\n// (3) 0xCd863A116A2c8f2E3b0A1AcF6D470d1C301f8c87 (100 ETH)\n// (4) 0x898d1B846541a2595976f4f41Ddd7d9687F5a784 (100 ETH)\n// Gas limit 6721975\n\ncontract SupplyChain is ConsumerRole, DistributorRole, FarmerRole, RetailerRole, Ownable {\n  // Define a variable called 'upc' for Universal Product Code (UPC)\n  uint  upc;\n\n  // Define a variable called 'sku' for Stock Keeping Unit (SKU)\n  uint  sku;\n\n  // Define a public mapping 'items' that maps the UPC to an Item.\n  mapping (uint => Item) items;\n\n  // Define a public mapping 'itemsHistory' that maps the UPC to an array of TxHash, \n  // that track its journey through the supply chain -- to be sent from DApp.\n  mapping (uint => string[]) itemsHistory;\n\n  enum ContractState {On, Paused}\n\n  ContractState public currentContractState;\n  \n  // Define enum 'State' with the following values:\n  enum State \n  { \n    Growing,\n    Harvested,  // 1\n    Processed,  // 2\n    Packed,     // 3\n    ForSale,    // 4\n    Sold,       // 5\n    Shipped,    // 6\n    Received,   // 7\n    Purchased   // 8\n    }\n\n  State constant defaultState = State.Harvested;\n\n  // Define a struct 'Item' with the following fields:\n  struct Item {\n    uint    sku;  // Stock Keeping Unit (SKU)\n    uint    upc; // Universal Product Code (UPC), generated by the Farmer, goes on the package, can be verified by the Consumer\n    address ownerID;  // Metamask-Ethereum address of the current owner as the product moves through 8 stages\n    address originFarmerID; // Metamask-Ethereum address of the Farmer\n    string  originFarmName; // Farmer Name\n    string  originFarmInformation;  // Farmer Information\n    string  originFarmLatitude; // Farm Latitude\n    string  originFarmLongitude;  // Farm Longitude\n    uint    productID;  // Product ID potentially a combination of upc + sku\n    string  productNotes; // Product Notes\n    uint    productPrice; // Product Price\n    State   itemState;  // Product State as represented in the enum above\n    address distributorID;  // Metamask-Ethereum address of the Distributor\n    address retailerID; // Metamask-Ethereum address of the Retailer\n    address consumerID; // Metamask-Ethereum address of the Consumer\n  }\n\n  // Define 8 events with the same 8 state values and accept 'upc' as input argument\n  event Harvested(uint upc);\n  event Processed(uint upc);\n  event Packed(uint upc);\n  event ForSale(uint upc);\n  event Sold(uint upc);\n  event Shipped(uint upc);\n  event Received(uint upc);\n  event Purchased(uint upc);\n\n  // Define a modifer that checks to see if msg.sender == owner of the contract\n  // DEFINED IN OWNABLE\n  // modifier onlyOwner() {\n  //   (msg.sender == owner);\n  //   _;\n  // }\n  \n  modifier verifyNotPaused(){\n    require(currentContractState == ContractState.On, \"The contract has been paused for security reasons\");\n    _;\n  }\n\n  // Define a modifer that verifies the Caller\n  modifier verifyCaller (address _address) {\n    require(msg.sender == _address, \"Invalid method caller\"); \n    _;\n  }\n\n  // Define a modifier that checks if the paid amount is sufficient to cover the price\n  modifier paidEnough(uint _upc) { \n    uint price = items[_upc].productPrice;\n    require(msg.value >= price, \"This item is priced higher than what you're paying for.\"); \n    _;\n  }\n  \n  // Define a modifier that checks the price and refunds the remaining balance\n  modifier checkValue(uint _upc) {\n    _;\n    uint _price = items[_upc].productPrice;\n    uint amountToReturn = msg.value - _price;\n    address payable consumerAddress = payable(items[_upc].consumerID);\n    consumerAddress.transfer(amountToReturn);\n  }\n\n  // Define a modifier that checks if an item.state of a upc is Harvested\n  modifier harvested(uint _upc) {\n    require(items[_upc].itemState == State.Harvested, \"Item has not been harvested yet\");\n    _;\n  }\n\n  // Define a modifier that checks if an item.state of a upc is Processed\n  modifier processed(uint _upc) {\n    require(items[_upc].itemState == State.Processed, \"Item's not been processed yet\");\n    _;\n  }\n  \n  // Define a modifier that checks if an item.state of a upc is Packed\n  modifier packed(uint _upc) {\n    require(items[_upc].itemState == State.Packed, \"Item's not been packed yet\");\n    _;\n  }\n\n  // Define a modifier that checks if an item.state of a upc is ForSale\n  modifier forSale(uint _upc) {\n    require(items[_upc].itemState == State.ForSale, \"This Item is not yet for sale\");\n    _;\n  }\n\n  // Define a modifier that checks if an item.state of a upc is Sold\n  modifier sold(uint _upc) {\n    require(items[_upc].itemState == State.Sold, \"Item hasn't been sold yet\");\n    _;\n  }\n  \n  // Define a modifier that checks if an item.state of a upc is Shipped\n  modifier shipped(uint _upc) {\n    require(items[_upc].itemState == State.Shipped, \"This item hasn't been shipped yet\");\n    _;\n  }\n\n  // Define a modifier that checks if an item.state of a upc is Received\n  modifier received(uint _upc) {\n    require(items[_upc].itemState == State.Received, \"Item's not been received yet\");\n    _;\n  }\n\n  // Define a modifier that checks if an item.state of a upc is Purchased\n  modifier purchased(uint _upc) {\n    require(items[_upc].itemState == State.Purchased, \"This item hasn't been purchased yet\");\n    _;\n  }\n  modifier greaterThanZero(uint _price){\n    require(_price > 0, \"Price should be greater than zero\");\n    _;\n  }\n\n  modifier onlyOriginFarmer(uint _upc) {\n    require(items[_upc].originFarmerID == msg.sender, \"Only the origin farmer can change this item's state\");\n    _;\n  }\n\n  // In the constructor set 'owner' to the address that instantiated the contract\n  // and set 'sku' to 1\n  // and set 'upc' to 1\n  constructor() payable {\n    sku = 1;\n    upc = 1;\n    currentContractState = ContractState.On;\n  }\n\n  // Define a function 'kill' if d\n  function kill() public onlyOwner() {\n    address thisOwner = owner();\n    selfdestruct(payable(thisOwner));\n  }\n\n  // Define a function 'harvestItem' that allows a farmer to mark an item 'Harvested'\n  function harvestItem(\n    uint _upc,\n    address _originFarmerID,\n    string memory _originFarmName,\n    string  memory  _originFarmInformation,\n    string   memory  _originFarmLatitude,\n    string  memory   _originFarmLongitude,\n    string   memory  _productNotes) \n    public \n    verifyNotPaused()\n    onlyFarmer()\n  {\n    // Add the new item as part of Harvest\n    Item storage item = items[_upc];\n    if(upc == 1 && sku == 1){\n      // Very first item\n      item.upc = 1;\n    } else {\n      item.upc = sku + upc;\n    }\n    item.sku = sku;\n    item.ownerID = msg.sender;\n    item.originFarmerID = _originFarmerID;\n    item.originFarmName = _originFarmName;\n    item.originFarmInformation = _originFarmInformation;\n    item.originFarmLatitude = _originFarmLatitude;\n    item.originFarmLongitude = _originFarmLongitude;\n    item.productID = sku + upc;\n    item.productNotes = _productNotes;\n    item.itemState = State.Harvested;\n    // Increment sku\n    sku = sku + 1;\n    // Emit the appropriate event\n    emit Harvested(_upc);\n  }\n\n  function getItemState(uint _upc) public view returns(State state){\n    Item storage item = items[_upc];\n    return item.itemState;\n  }\n\n  function getContractState() public view returns(ContractState){\n    return currentContractState;\n  }\n\n  function pauseContract() public onlyOwner() returns(bool){\n    require(currentContractState != ContractState.Paused, \"Contract is already paused\");\n    currentContractState = ContractState.Paused;\n    require(currentContractState == ContractState.Paused, \"Failed to pause the contract\");\n    return true;\n  } \n\n  function restartContract() public onlyOwner() returns(bool){\n    require(currentContractState != ContractState.On, \"Contract is already on\");\n    currentContractState = ContractState.On;\n    require(currentContractState == ContractState.On, \"Failed to restart the contract\");\n    return true;\n  }\n\n  // Define a function 'processtItem' that allows a farmer to mark an item 'Processed'\n  function processItem(uint _upc) public verifyNotPaused()\n  // Call modifier to check if upc has passed previous supply chain stage\n    harvested(_upc)\n  // Call modifier to verify caller of this function\n    onlyFarmer()\n    onlyOriginFarmer(_upc)\n  {\n    Item storage item = items[_upc];\n    item.itemState = State.Processed;\n    item.productNotes = \"Coffee beans have been processed\";    \n    // Emit the appropriate event\n    emit Processed(_upc);\n  }\n\n  // Define a function 'packItem' that allows a farmer to mark an item 'Packed'\n  function packItem(uint _upc) public verifyNotPaused()\n  // Call modifier to check if upc has passed previous supply chain stage\n  processed(_upc)\n  // Call modifier to verify caller of this function\n  onlyFarmer()\n  onlyOriginFarmer(_upc)\n  {\n    Item storage item = items[_upc];\n    // Update the appropriate fields\n    item.itemState = State.Packed;\n    item.productNotes = string(abi.encodePacked(item.productNotes, \"\\n Packed on May 10th 2021\"));\n    // Emit the appropriate event\n    emit Packed(_upc);\n  }\n\n  // Define a function 'sellItem' that allows a farmer to mark an item 'ForSale'\n  function sellItem(uint _upc, uint _price) public verifyNotPaused()\n  // Call modifier to check if upc has passed previous supply chain stage\n  packed(_upc)\n  // Call modifier to verify caller of this function\n  greaterThanZero(_price)\n  onlyFarmer()\n  onlyOriginFarmer(_upc)\n  {\n    Item storage item = items[_upc];\n    item.productPrice = _price;\n    // Update the appropriate fields\n    item.itemState = State.ForSale;\n    // Emit the appropriate event\n    emit ForSale(_upc);\n  }\n\n  // Define a function 'buyItem' that allows the disributor to mark an item 'Sold'\n  // Use the above defined modifiers to check if the item is available for sale, if the buyer has paid enough, \n  // and any excess ether sent is refunded back to the buyer\n  function buyItem(uint _upc) public payable verifyNotPaused()\n    // Call modifier to check if upc has passed previous supply chain stage\n    forSale(_upc)\n    // Call modifer to check if buyer has paid enough\n    paidEnough(_upc)\n    onlyDistributor()\n    // Call modifer to send any excess ether back to buyer\n    {\n    Item storage item = items[_upc];\n    // Update the appropriate fields - ownerID, distributorID, itemState\n    item.distributorID = msg.sender;\n    item.ownerID = msg.sender;\n    item.itemState = State.Sold;\n    // Transfer money to farmer\n    address payable farmerAddress = payable(item.ownerID);\n    farmerAddress.transfer(item.productPrice);\n    // emit the appropriate event\n    emit Sold(_upc);\n  }\n\n  // Define a function 'shipItem' that allows the distributor to mark an item 'Shipped'\n  // Use the above modifers to check if the item is sold\n  function shipItem(uint _upc) public verifyNotPaused()\n    // Call modifier to check if upc has passed previous supply chain stage\n    sold(_upc)\n    // Call modifier to verify caller of this function\n     onlyDistributor()\n  {\n    Item storage item = items[_upc];\n    // Update the appropriate fields\n    item.itemState = State.Shipped;    \n    // Emit the appropriate event\n    emit Shipped(_upc);\n  }\n\n  // Define a function 'receiveItem' that allows the retailer to mark an item 'Received'\n  // Use the above modifiers to check if the item is shipped\n  function receiveItem(uint _upc) public verifyNotPaused()\n    // Call modifier to check if upc has passed previous supply chain stage\n    shipped(_upc)\n    onlyRetailer()\n    // Access Control List enforced by calling Smart Contract / DApp\n    {\n    Item storage item = items[_upc];\n    // Update the appropriate fields - ownerID, retailerID, itemState\n    item.ownerID = msg.sender;\n    item.retailerID = msg.sender;\n    item.itemState = State.Received;\n    // Emit the appropriate event\n    emit Received(_upc);\n  }\n\n  // Define a function 'purchaseItem' that allows the consumer to mark an item 'Purchased'\n  // Use the above modifiers to check if the item is received\n  function purchaseItem(uint _upc) public payable verifyNotPaused()\n    onlyConsumer()\n    received(_upc)\n    // Call modifier to check if upc has passed previous supply chain stage\n    checkValue(_upc)\n    // Access Control List enforced by calling Smart Contract / DApp\n    {\n    Item storage item = items[_upc];\n    // Update the appropriate fields - ownerID, consumerID, itemState\n    item.ownerID = msg.sender;\n    item.itemState = State.Purchased;\n    item.consumerID = msg.sender;\n    // Emit the appropriate event\n    emit Purchased(_upc);\n  }\n\n  // Define a function 'fetchItemBufferOne' that fetches the data\n  function fetchItemBufferOne(uint _upc) public view verifyNotPaused() returns \n  (\n  uint    itemSKU,\n  uint    itemUPC,\n  address ownerID,\n  address originFarmerID,\n  string  memory originFarmName,\n  string  memory originFarmInformation,\n  string  memory originFarmLatitude,\n  string  memory originFarmLongitude\n  ) \n  {\n  Item memory item = items[_upc];\n  return \n  (\n  item.sku,\n  item.upc,\n  item.ownerID,\n  item.originFarmerID,\n  item.originFarmName,\n  item.originFarmInformation,\n  item.originFarmLatitude,\n  item.originFarmLongitude\n  );\n  }\n\n  // Define a function 'fetchItemBufferTwo' that fetches the data\n  function fetchItemBufferTwo(uint _upc) public view verifyNotPaused() returns \n  (\n  uint    itemSKU,\n  uint    itemUPC,\n  uint    productID,\n  string memory productNotes,\n  uint    productPrice,\n  uint    itemState,\n  address distributorID,\n  address retailerID,\n  address consumerID\n  ) \n  {\n  Item memory item = items[_upc];\n  return \n  (\n  item.sku,\n  item.upc,\n  item.productID,\n  item.productNotes,\n  item.productPrice,\n  uint(item.itemState),\n  item.distributorID,\n  item.retailerID,\n  item.consumerID\n  );\n  }\n}",
  "sourcePath": "/Users/tom/udacity/project3/nd1309-Project-6b-Example-Template/project-6/contracts/coffeebase/SupplyChain.sol",
  "compiler": {
    "name": "solc",
    "version": "0.7.1+commit.f4a555be.Linux.g++"
  },
  "schemaVersion": "3.3.3",
  "updatedAt": "2021-05-16T16:43:54.862Z",
  "networkType": "ethereum",
  "devdoc": {
    "kind": "dev",
    "methods": {},
    "version": 1
  },
  "userdoc": {
    "kind": "user",
    "methods": {
      "isOwner()": {
        "notice": "Check if the calling address is the owner of the contract"
      },
      "owner()": {
        "notice": "Look up the address of the owner"
      },
      "renounceOwnership()": {
        "notice": "Define a function to renounce ownerhip"
      },
      "transferOwnership(address)": {
        "notice": "Define a public function to transfer ownership"
      }
    },
    "version": 1
  }
}